{
  "address": "0x1CdCdFaA4bD0c7f083b36b53DE3343c8220722Ee",
  "abi": [
    {
      "inputs": [
        {
          "internalType": "address",
          "name": "feeCollector",
          "type": "address"
        }
      ],
      "stateMutability": "nonpayable",
      "type": "constructor"
    },
    {
      "inputs": [
        {
          "internalType": "uint256",
          "name": "min",
          "type": "uint256"
        },
        {
          "internalType": "uint256",
          "name": "max",
          "type": "uint256"
        }
      ],
      "name": "PRNG__InvalidRange",
      "type": "error"
    },
    {
      "inputs": [],
      "name": "Scarf__InvalidFeeCollector",
      "type": "error"
    },
    {
      "inputs": [],
      "name": "Scarf__InvalidMintFee",
      "type": "error"
    },
    {
      "inputs": [],
      "name": "Scarf__NoFeesAvailable",
      "type": "error"
    },
    {
      "inputs": [],
      "name": "Scarf__NotFeeCollector",
      "type": "error"
    },
    {
      "inputs": [],
      "name": "Scarf__NotMinted",
      "type": "error"
    },
    {
      "inputs": [],
      "name": "Scarf__TransferFailed",
      "type": "error"
    },
    {
      "inputs": [],
      "name": "Scarf__ZeroAddress",
      "type": "error"
    },
    {
      "anonymous": false,
      "inputs": [
        {
          "indexed": true,
          "internalType": "address",
          "name": "owner",
          "type": "address"
        },
        {
          "indexed": true,
          "internalType": "address",
          "name": "approved",
          "type": "address"
        },
        {
          "indexed": true,
          "internalType": "uint256",
          "name": "tokenId",
          "type": "uint256"
        }
      ],
      "name": "Approval",
      "type": "event"
    },
    {
      "anonymous": false,
      "inputs": [
        {
          "indexed": true,
          "internalType": "address",
          "name": "owner",
          "type": "address"
        },
        {
          "indexed": true,
          "internalType": "address",
          "name": "operator",
          "type": "address"
        },
        {
          "indexed": false,
          "internalType": "bool",
          "name": "approved",
          "type": "bool"
        }
      ],
      "name": "ApprovalForAll",
      "type": "event"
    },
    {
      "anonymous": false,
      "inputs": [
        {
          "indexed": false,
          "internalType": "address",
          "name": "oldFeeCollector",
          "type": "address"
        },
        {
          "indexed": false,
          "internalType": "address",
          "name": "newFeeCollector",
          "type": "address"
        }
      ],
      "name": "FeeCollectorChanged",
      "type": "event"
    },
    {
      "anonymous": false,
      "inputs": [
        {
          "indexed": false,
          "internalType": "address",
          "name": "feeCollector",
          "type": "address"
        },
        {
          "indexed": false,
          "internalType": "uint256",
          "name": "amount",
          "type": "uint256"
        }
      ],
      "name": "FeesWithdrawn",
      "type": "event"
    },
    {
      "anonymous": false,
      "inputs": [
        {
          "indexed": true,
          "internalType": "address",
          "name": "previousOwner",
          "type": "address"
        },
        {
          "indexed": true,
          "internalType": "address",
          "name": "newOwner",
          "type": "address"
        }
      ],
      "name": "OwnershipTransferred",
      "type": "event"
    },
    {
      "anonymous": false,
      "inputs": [
        {
          "indexed": true,
          "internalType": "address",
          "name": "from",
          "type": "address"
        },
        {
          "indexed": true,
          "internalType": "address",
          "name": "to",
          "type": "address"
        },
        {
          "indexed": true,
          "internalType": "uint256",
          "name": "tokenId",
          "type": "uint256"
        }
      ],
      "name": "Transfer",
      "type": "event"
    },
    {
      "inputs": [
        {
          "internalType": "address",
          "name": "to",
          "type": "address"
        },
        {
          "internalType": "uint256",
          "name": "tokenId",
          "type": "uint256"
        }
      ],
      "name": "approve",
      "outputs": [],
      "stateMutability": "nonpayable",
      "type": "function"
    },
    {
      "inputs": [
        {
          "internalType": "address",
          "name": "owner",
          "type": "address"
        }
      ],
      "name": "balanceOf",
      "outputs": [
        {
          "internalType": "uint256",
          "name": "",
          "type": "uint256"
        }
      ],
      "stateMutability": "view",
      "type": "function"
    },
    {
      "inputs": [
        {
          "internalType": "uint256",
          "name": "tokenId",
          "type": "uint256"
        }
      ],
      "name": "getApproved",
      "outputs": [
        {
          "internalType": "address",
          "name": "",
          "type": "address"
        }
      ],
      "stateMutability": "view",
      "type": "function"
    },
    {
      "inputs": [
        {
          "internalType": "uint256",
          "name": "tokenId",
          "type": "uint256"
        }
      ],
      "name": "getAttributes",
      "outputs": [
        {
          "components": [
            {
              "internalType": "string",
              "name": "color",
              "type": "string"
            }
          ],
          "internalType": "struct DataTypes.Scarf",
          "name": "",
          "type": "tuple"
        }
      ],
      "stateMutability": "view",
      "type": "function"
    },
    {
      "inputs": [],
      "name": "getFeeCollector",
      "outputs": [
        {
          "internalType": "address",
          "name": "",
          "type": "address"
        }
      ],
      "stateMutability": "view",
      "type": "function"
    },
    {
      "inputs": [
        {
          "internalType": "address",
          "name": "owner",
          "type": "address"
        },
        {
          "internalType": "address",
          "name": "operator",
          "type": "address"
        }
      ],
      "name": "isApprovedForAll",
      "outputs": [
        {
          "internalType": "bool",
          "name": "",
          "type": "bool"
        }
      ],
      "stateMutability": "view",
      "type": "function"
    },
    {
      "inputs": [],
      "name": "mint",
      "outputs": [
        {
          "internalType": "uint256",
          "name": "",
          "type": "uint256"
        }
      ],
      "stateMutability": "payable",
      "type": "function"
    },
    {
      "inputs": [],
      "name": "name",
      "outputs": [
        {
          "internalType": "string",
          "name": "",
          "type": "string"
        }
      ],
      "stateMutability": "view",
      "type": "function"
    },
    {
      "inputs": [],
      "name": "owner",
      "outputs": [
        {
          "internalType": "address",
          "name": "",
          "type": "address"
        }
      ],
      "stateMutability": "view",
      "type": "function"
    },
    {
      "inputs": [
        {
          "internalType": "uint256",
          "name": "tokenId",
          "type": "uint256"
        }
      ],
      "name": "ownerOf",
      "outputs": [
        {
          "internalType": "address",
          "name": "",
          "type": "address"
        }
      ],
      "stateMutability": "view",
      "type": "function"
    },
    {
      "inputs": [
        {
          "internalType": "uint256",
          "name": "tokenId",
          "type": "uint256"
        }
      ],
      "name": "renderTokenById",
      "outputs": [
        {
          "internalType": "string",
          "name": "",
          "type": "string"
        }
      ],
      "stateMutability": "view",
      "type": "function"
    },
    {
      "inputs": [],
      "name": "renounceOwnership",
      "outputs": [],
      "stateMutability": "nonpayable",
      "type": "function"
    },
    {
      "inputs": [
        {
          "internalType": "address",
          "name": "from",
          "type": "address"
        },
        {
          "internalType": "address",
          "name": "to",
          "type": "address"
        },
        {
          "internalType": "uint256",
          "name": "tokenId",
          "type": "uint256"
        }
      ],
      "name": "safeTransferFrom",
      "outputs": [],
      "stateMutability": "nonpayable",
      "type": "function"
    },
    {
      "inputs": [
        {
          "internalType": "address",
          "name": "from",
          "type": "address"
        },
        {
          "internalType": "address",
          "name": "to",
          "type": "address"
        },
        {
          "internalType": "uint256",
          "name": "tokenId",
          "type": "uint256"
        },
        {
          "internalType": "bytes",
          "name": "data",
          "type": "bytes"
        }
      ],
      "name": "safeTransferFrom",
      "outputs": [],
      "stateMutability": "nonpayable",
      "type": "function"
    },
    {
      "inputs": [
        {
          "internalType": "address",
          "name": "operator",
          "type": "address"
        },
        {
          "internalType": "bool",
          "name": "approved",
          "type": "bool"
        }
      ],
      "name": "setApprovalForAll",
      "outputs": [],
      "stateMutability": "nonpayable",
      "type": "function"
    },
    {
      "inputs": [
        {
          "internalType": "address",
          "name": "newFeeCollector",
          "type": "address"
        }
      ],
      "name": "setFeeCollector",
      "outputs": [],
      "stateMutability": "nonpayable",
      "type": "function"
    },
    {
      "inputs": [
        {
          "internalType": "bytes4",
          "name": "interfaceId",
          "type": "bytes4"
        }
      ],
      "name": "supportsInterface",
      "outputs": [
        {
          "internalType": "bool",
          "name": "",
          "type": "bool"
        }
      ],
      "stateMutability": "view",
      "type": "function"
    },
    {
      "inputs": [],
      "name": "symbol",
      "outputs": [
        {
          "internalType": "string",
          "name": "",
          "type": "string"
        }
      ],
      "stateMutability": "view",
      "type": "function"
    },
    {
      "inputs": [
        {
          "internalType": "uint256",
          "name": "index",
          "type": "uint256"
        }
      ],
      "name": "tokenByIndex",
      "outputs": [
        {
          "internalType": "uint256",
          "name": "",
          "type": "uint256"
        }
      ],
      "stateMutability": "view",
      "type": "function"
    },
    {
      "inputs": [
        {
          "internalType": "address",
          "name": "owner",
          "type": "address"
        },
        {
          "internalType": "uint256",
          "name": "index",
          "type": "uint256"
        }
      ],
      "name": "tokenOfOwnerByIndex",
      "outputs": [
        {
          "internalType": "uint256",
          "name": "",
          "type": "uint256"
        }
      ],
      "stateMutability": "view",
      "type": "function"
    },
    {
      "inputs": [
        {
          "internalType": "uint256",
          "name": "tokenId",
          "type": "uint256"
        }
      ],
      "name": "tokenURI",
      "outputs": [
        {
          "internalType": "string",
          "name": "",
          "type": "string"
        }
      ],
      "stateMutability": "view",
      "type": "function"
    },
    {
      "inputs": [],
      "name": "totalSupply",
      "outputs": [
        {
          "internalType": "uint256",
          "name": "",
          "type": "uint256"
        }
      ],
      "stateMutability": "view",
      "type": "function"
    },
    {
      "inputs": [
        {
          "internalType": "address",
          "name": "from",
          "type": "address"
        },
        {
          "internalType": "address",
          "name": "to",
          "type": "address"
        },
        {
          "internalType": "uint256",
          "name": "tokenId",
          "type": "uint256"
        }
      ],
      "name": "transferFrom",
      "outputs": [],
      "stateMutability": "nonpayable",
      "type": "function"
    },
    {
      "inputs": [
        {
          "internalType": "address",
          "name": "newOwner",
          "type": "address"
        }
      ],
      "name": "transferOwnership",
      "outputs": [],
      "stateMutability": "nonpayable",
      "type": "function"
    },
    {
      "inputs": [],
      "name": "withdrawFees",
      "outputs": [],
      "stateMutability": "nonpayable",
      "type": "function"
    }
  ],
  "transactionHash": "0x4bdc55d479601bf3ba9dd3be2424739dee194d2854ba74c9dbd5da06955342e3",
  "args": [
    "0x12adf022b8Fe3ea6cB127027C4e8C16CA2FC1176"
  ],
  "numDeployments": 1,
  "solcInputHash": "7f768c53a00b7b2c50d393db32f28dd5",
  "bytecode": "0x60806040523461038557604051601f61210038819003918201601f19168301916001600160401b038311848410176102905780849260209460405283398101031261038557516001600160a01b038116908190036103855761005f61038a565b9061006861038a565b82519091906001600160401b03811161029057600054600181811c9116801561037b575b602082101461027057601f8111610317575b506020601f82116001146102b157819293946000926102a6575b50508160011b916000199060031b1c1916176000555b81516001600160401b03811161029057600154600181811c91168015610286575b602082101461027057601f811161020b575b50602092601f82116001146101a6579281929360009261019b575b50508160011b916000199060031b1c1916176001555b600a8054336001600160a01b0319821681179092556040519291906001600160a01b03167f8be0079c531659141344cd1fd0a4f28419497f9722a3daafe3b4186f6b6457e0600080a3600b80546001600160a01b031916919091179055611d4490816103bc8239f35b01519050388061011c565b601f198216936001600052806000209160005b8681106101f357508360019596106101da575b505050811b01600155610132565b015160001960f88460031b161c191690553880806101cc565b919260206001819286850151815501940192016101b9565b60016000527fb10e2d527612073b26eecdfd717e6a320cf44b4afac2b0732d9fcbe2b7fa0cf6601f830160051c81019160208410610266575b601f0160051c01905b81811061025a5750610101565b6000815560010161024d565b9091508190610244565b634e487b7160e01b600052602260045260246000fd5b90607f16906100ef565b634e487b7160e01b600052604160045260246000fd5b0151905038806100b8565b601f1982169060008052806000209160005b8181106102ff575095836001959697106102e6575b505050811b016000556100ce565b015160001960f88460031b161c191690553880806102d8565b9192602060018192868b0151815501940192016102c3565b600080527f290decd9548b62a8d60345a988386fc84ba6bc95484008f6362f93160ef3e563601f830160051c81019160208410610371575b601f0160051c01905b818110610365575061009e565b60008155600101610358565b909150819061034f565b90607f169061008c565b600080fd5b60408051919082016001600160401b0381118382101761029057604052600582526429b1b0b93360d91b602083015256fe608080604052600436101561001357600080fd5b600090813560e01c90816301ffc9a7146111455750806306fdde03146110bd578063081812fc1461109e578063095ea7b314610f1a5780631249c58b14610abe57806312fde4b714610a9557806318160ddd14610a7757806323b872dd14610a4d5780632f745c59146109a057806342842e0e146109765780634378a6e314610918578063476343ee1461086b5780634f6ccce7146107d85780636352211e146107a757806370a082311461077b578063715018a61461071e5780638da5cb5b146106f557806395d89b4114610612578063a22cb4651461053c578063a2d6c6da1461049c578063a42dce80146103fa578063b88d4fde14610365578063c87b56dd14610259578063e985e9c5146101ff5763f2fde38b1461013457600080fd5b346101fc5760203660031901126101fc5761014d611214565b6101556119d7565b6001600160a01b031680156101a857600a80546001600160a01b0319811683179091556001600160a01b03167f8be0079c531659141344cd1fd0a4f28419497f9722a3daafe3b4186f6b6457e08380a380f35b60405162461bcd60e51b815260206004820152602660248201527f4f776e61626c653a206e6577206f776e657220697320746865207a65726f206160448201526564647265737360d01b6064820152608490fd5b80fd5b50346101fc5760403660031901126101fc57604061021b611214565b9161022461122f565b9260018060a01b031681526005602052209060018060a01b0316600052602052602060ff604060002054166040519015158152f35b50346101fc5760203660031901126101fc576004356000818152600260205260409020546001600160a01b03161561035657808252600d602052816102dd604082206102b0604051916102ab8361127f565b611329565b815260405193849283926326877f8b60e21b845260406004850152516020604485015260648401906111ef565b906024830152038173Bb9ee01500F42F30183b6dbEe882148C6669E90a5af490811561034b57826103249392610328575b50506040519182916020835260208301906111ef565b0390f35b61034492503d8091833e61033c81836112b1565b8101906115b7565b388061030e565b6040513d84823e3d90fd5b633a5c641160e21b8252600482fd5b50346101fc5760803660031901126101fc5761037f611214565b61038761122f565b906064359067ffffffffffffffff82116103f657366023830112156103f657816004013592846103b6856112d3565b936103c460405195866112b1565b85855236602487830101116103f257856103ef96602460209301838801378501015260443591611616565b80f35b5080fd5b8380fd5b50346101fc5760203660031901126101fc57610414611214565b61041c6119d7565b600b546001600160a01b03808216921690811561048d5782821461047e576001600160a01b0319168117600b556040805192835260208301919091527f649c5e3d0ed183894196148e193af316452b0037e77d2ff0fef23b7dc722bed091a180f35b631cbbc77f60e11b8452600484fd5b635c05802160e01b8452600484fd5b50346101fc5760203660031901126101fc576004358152600d6020526104fc81604081206104d0604051916102ab8361127f565b815260405180938192630cb27b3b60e11b835260206004840152516020602484015260448301906111ef565b038173Bb9ee01500F42F30183b6dbEe882148C6669E90a5af490811561034b578261032493926103285750506040519182916020835260208301906111ef565b50346101fc5760403660031901126101fc57610556611214565b6024359081151580920361060e576001600160a01b0316903382146105c95733835260056020526040832082600052602052604060002060ff1981541660ff83161790556040519081527f17307eab39ab6107e8899845ad3d59bd9653f200f220920489ca2b5937696c3160203392a380f35b60405162461bcd60e51b815260206004820152601960248201527f4552433732313a20617070726f766520746f2063616c6c6572000000000000006044820152606490fd5b8280fd5b50346101fc57806003193601126101fc57604051908060015490610635826112ef565b80855291600181169081156106ce5750600114610671575b6103248461065d818603826112b1565b6040519182916020835260208301906111ef565b600181527fb10e2d527612073b26eecdfd717e6a320cf44b4afac2b0732d9fcbe2b7fa0cf6939250905b8082106106b45750909150810160200161065d8261064d565b91926001816020925483858801015201910190929161069b565b60ff191660208087019190915292151560051b8501909201925061065d915083905061064d565b50346101fc57806003193601126101fc57600a546040516001600160a01b039091168152602090f35b50346101fc57806003193601126101fc576107376119d7565b600a80546001600160a01b0319811690915581906001600160a01b03167f8be0079c531659141344cd1fd0a4f28419497f9722a3daafe3b4186f6b6457e08280a380f35b50346101fc5760203660031901126101fc57602061079f61079a611214565b611540565b604051908152f35b50346101fc5760203660031901126101fc5760206107c660043561151a565b6040516001600160a01b039091168152f35b50346101fc5760203660031901126101fc576004356008548110156108115761080260209161149d565b90549060031b1c604051908152f35b60405162461bcd60e51b815260206004820152602c60248201527f455243373231456e756d657261626c653a20676c6f62616c20696e646578206f60448201526b7574206f6620626f756e647360a01b6064820152608490fd5b50346101fc57806003193601126101fc57600b546001600160a01b0316338190036109095747156108fa57818080804780955af16108a761140b565b50156108eb5760407fc0819c13be868895eb93e40eaceb96de976442fa1d404e5c55f14bb65a8c489a9160018060a01b03600b54169082519182526020820152a180f35b632e61b12f60e21b8252600482fd5b63d31548fb60e01b8252600482fd5b63b72de5af60e01b8252600482fd5b50346101fc5760203660031901126101fc576040610324916060825161093d8161127f565b526004358152600d60205220610959604051916102ab8361127f565b8152604051918291602083525160208084015260408301906111ef565b50346101fc576103ef61098836611245565b90604051926109986020856112b1565b858452611616565b50346101fc5760403660031901126101fc576109ba611214565b602435916109c782611540565b8310156109f45760209260409260018060a01b031682526006845282822090825283522054604051908152f35b60405162461bcd60e51b815260206004820152602b60248201527f455243373231456e756d657261626c653a206f776e657220696e646578206f7560448201526a74206f6620626f756e647360a81b6064820152608490fd5b50346101fc576103ef610a5f36611245565b91610a72610a6d84336116aa565b61143b565b61177d565b50346101fc57806003193601126101fc576020600854604051908152f35b50346101fc57806003193601126101fc57600b546040516001600160a01b039091168152602090f35b50806003193601126101fc5766038d7ea4c680003410610f0b576001600c540180600c553315610ec757600081815260026020526040902054610b0d906001600160a01b031615155b1561165e565b6008548183526009602052806040842055600160401b811015610eb35781610b3e826001610b57940160085561149d565b90919082549060031b91821b91600019901b1916179055565b610b6033611540565b33835260066020526040832081845260205281604084205581835260076020526040832055610ba7610b0782600052600260205260018060a01b0360406000205416151590565b33808352600360209081526040808520805460010190558385526002909152832080546001600160a01b03191682179055819083600080516020611cef8339815191528180a46040516060610bfc81836112b1565b8036833783600019430143811133841b9630851b9240935b6003821015610c9c5780610c88575081610c72576001604051602081019083825242604082015286888201528a608082015285609482015260888152610c5b60a8826112b1565b51902060659006600583901b880152016000610c14565b634e487b7160e01b600052601160045260246000fd5b634e487b7160e01b81526011600452602490fd5b878791610d546002600385519582610ccf610cc9610cc3604060208601519501519a611b7f565b93611b7f565b98611b7f565b6024604051998a94630d0e6d8560e31b6020870152610cf7815180926020868a0191016111cc565b850161016160f51b83820152610d178251809360206026850191016111cc565b01016201296160ed1b83820152610d388251809360206005850191016111cc565b010161252960f01b838201520301601d198101865201846112b1565b60405192610d618461127f565b8352818152600d60205260408120925192835167ffffffffffffffff8111610eb357610d8d82546112ef565b601f8111610e6e575b50602094601f8211600114610e0c579483949582939492610e01575b50508160011b916000199060031b1c19161790555b808080803460018060a01b03600a54165af1610de161140b565b5015610df257602082604051908152f35b632e61b12f60e21b8152600490fd5b015190508580610db2565b601f1982169583855280852091855b888110610e5657508360019596979810610e3d575b505050811b019055610dc7565b015160001960f88460031b161c19169055858080610e30565b91926020600181928685015181550194019201610e1b565b82845260208420601f830160051c81019160208410610ea9575b601f0160051c01905b818110610e9e5750610d96565b848155600101610e91565b9091508190610e88565b634e487b7160e01b83526041600452602483fd5b606460405162461bcd60e51b815260206004820152602060248201527f4552433732313a206d696e7420746f20746865207a65726f20616464726573736044820152fd5b630ea220ab60e11b8152600490fd5b50346101fc5760403660031901126101fc57610f34611214565b602435906001600160a01b03610f498361151a565b6001600160a01b03909216911681811461104f5780331490811561102e575b5015610fc35781835260046020526040832080546001600160a01b031916821790556001600160a01b03610f9b8361151a565b167f8c5be1e5ebec7d5bd14f71427d1e84f3dd0314c0f7b2291e5b200ac8c7c3b9258480a480f35b60405162461bcd60e51b815260206004820152603d60248201527f4552433732313a20617070726f76652063616c6c6572206973206e6f7420746f60448201527f6b656e206f776e6572206f7220617070726f76656420666f7220616c6c0000006064820152608490fd5b84525060056020908152604080852033865290915283205460ff1638610f68565b60405162461bcd60e51b815260206004820152602160248201527f4552433732313a20617070726f76616c20746f2063757272656e74206f776e656044820152603960f91b6064820152608490fd5b50346101fc5760203660031901126101fc5760206107c66004356113cd565b50346101fc57806003193601126101fc5760405190808054906110df826112ef565b80855291600181169081156106ce5750600114611106576103248461065d818603826112b1565b80805260208120939250905b80821061112b5750909150810160200161065d8261064d565b919260018160209254838588010152019101909291611112565b9050346103f25760203660031901126103f25760043563ffffffff60e01b811680910361060e576020925063780e9d6360e01b8114908115611189575b5015158152f35b6380ac58cd60e01b8114915081156111bb575b81156111aa575b5038611182565b6301ffc9a760e01b149050386111a3565b635b5e139f60e01b8114915061119c565b60005b8381106111df5750506000910152565b81810151838201526020016111cf565b90602091611208815180928185528580860191016111cc565b601f01601f1916010190565b600435906001600160a01b038216820361122a57565b600080fd5b602435906001600160a01b038216820361122a57565b606090600319011261122a576004356001600160a01b038116810361122a57906024356001600160a01b038116810361122a579060443590565b6020810190811067ffffffffffffffff82111761129b57604052565b634e487b7160e01b600052604160045260246000fd5b90601f8019910116810190811067ffffffffffffffff82111761129b57604052565b67ffffffffffffffff811161129b57601f01601f191660200190565b90600182811c9216801561131f575b602083101461130957565b634e487b7160e01b600052602260045260246000fd5b91607f16916112fe565b906040519182600082549261133d846112ef565b80845293600181169081156113ab5750600114611364575b50611362925003836112b1565b565b90506000929192526020600020906000915b81831061138f5750509060206113629282010138611355565b6020919350806001915483858901015201910190918492611376565b90506020925061136294915060ff191682840152151560051b82010138611355565b6000818152600260205260409020546113f0906001600160a01b031615156114ce565b6000908152600460205260409020546001600160a01b031690565b3d15611436573d9061141c826112d3565b9161142a60405193846112b1565b82523d6000602084013e565b606090565b1561144257565b60405162461bcd60e51b815260206004820152602d60248201527f4552433732313a2063616c6c6572206973206e6f7420746f6b656e206f776e6560448201526c1c881bdc88185c1c1c9bdd9959609a1b6064820152608490fd5b6008548110156114b857600860005260206000200190600090565b634e487b7160e01b600052603260045260246000fd5b156114d557565b60405162461bcd60e51b815260206004820152601860248201527f4552433732313a20696e76616c696420746f6b656e20494400000000000000006044820152606490fd5b6000908152600260205260409020546001600160a01b031661153d8115156114ce565b90565b6001600160a01b0316801561156057600052600360205260406000205490565b60405162461bcd60e51b815260206004820152602960248201527f4552433732313a2061646472657373207a65726f206973206e6f7420612076616044820152683634b21037bbb732b960b91b6064820152608490fd5b60208183031261122a5780519067ffffffffffffffff821161122a570181601f8201121561122a5780516115ea816112d3565b926115f860405194856112b1565b8184526020828401011161122a5761153d91602080850191016111cc565b9061163a93929161162a610a6d84336116aa565b61163583838361177d565b611a82565b1561164157565b60405162461bcd60e51b81528061165a60048201611a2f565b0390fd5b1561166557565b60405162461bcd60e51b815260206004820152601c60248201527f4552433732313a20746f6b656e20616c7265616479206d696e746564000000006044820152606490fd5b906001600160a01b036116bc8261151a565b6001600160a01b03909316921682811492919083156116fc575b5082156116e257505090565b9091506001600160a01b03906116f7906113cd565b161490565b909250600052600560205260406000208160005260205260ff6040600020541691386116d6565b1561172a57565b60405162461bcd60e51b815260206004820152602560248201527f4552433732313a207472616e736665722066726f6d20696e636f72726563742060448201526437bbb732b960d91b6064820152608490fd5b906117878361151a565b6001600160a01b0383811692916117a091168314611723565b6001600160a01b03811692831561198657826118c557506008549084600052600960205281604060002055600160401b82101561129b576117fa85610b3e846001600080516020611cef833981519152960160085561149d565b600090838503611891575b50611822836001600160a01b0361181b8861151a565b1614611723565b8481526004602052604081206bffffffffffffffffffffffff60a01b8154169055828152600360205260408120600019815401905583815260036020526040812060018154019055848152600260205260408120846bffffffffffffffffffffffff60a01b82541617905580a4565b61189a90611540565b8482526006602052604082208183526020528560408320558582526007602052604082205538611805565b8383036118e3575b50600080516020611cef833981519152906117fa565b6118ec90611540565b600019810191908211610c7257600080516020611cef83398151915291856000526007602052604060002054818103611953575b508560005260076020526000604081205583600052600660205260406000209060005260205260006040812055906118cd565b60008581526006602090815260408083208584528252808320548484528184208190558352600790915290205538611920565b60405162461bcd60e51b8152602060048201526024808201527f4552433732313a207472616e7366657220746f20746865207a65726f206164646044820152637265737360e01b6064820152608490fd5b600a546001600160a01b031633036119eb57565b606460405162461bcd60e51b815260206004820152602060248201527f4f776e61626c653a2063616c6c6572206973206e6f7420746865206f776e65726044820152fd5b60809060208152603260208201527f4552433732313a207472616e7366657220746f206e6f6e20455243373231526560408201527131b2b4bb32b91034b6b83632b6b2b73a32b960711b60608201520190565b919290803b15611b7657611ad293600060209460405196879586948593630a85bd0160e11b855233600486015260018060a01b0316602485015260448401526080606484015260848301906111ef565b03926001600160a01b03165af18091600091611b33575b5090611b1d57611af761140b565b80519081611b185760405162461bcd60e51b81528061165a60048201611a2f565b602001fd5b6001600160e01b031916630a85bd0160e11b1490565b6020813d602011611b6e575b81611b4c602093836112b1565b810103126103f25751906001600160e01b0319821682036101fc575038611ae9565b3d9150611b3f565b50505050600190565b8060009172184f03e93ff9f4daa797ed6e38ed64bf6a1f0160401b821015611ccb575b806d04ee2d6d415b85acef8100000000600a921015611cb0575b662386f26fc10000811015611c9c575b6305f5e100811015611c8b575b612710811015611c7c575b6064811015611c6e575b1015611c63575b600a60216001840193611c07856112d3565b94611c1560405196876112b1565b808652611c24601f19916112d3565b013660208701378401015b60001901916f181899199a1a9b1b9c1cb0b131b232b360811b8282061a8353048015611c5e57600a9091611c2f565b505090565b600190910190611bf5565b606460029104930192611bee565b61271060049104930192611be4565b6305f5e10060089104930192611bd9565b662386f26fc1000060109104930192611bcc565b6d04ee2d6d415b85acef810000000060209104930192611bbc565b506040915072184f03e93ff9f4daa797ed6e38ed64bf6a1f0160401b8104611ba256feddf252ad1be2c89b69c2b068fc378daa952ba7f163c4a11628f55a4df523b3efa26469706673582212201ff760fb9a46262a444031e9074454a4808127395b2bcef29a914f43eb7a527564736f6c634300081c0033",
  "deployedBytecode": "0x608080604052600436101561001357600080fd5b600090813560e01c90816301ffc9a7146111455750806306fdde03146110bd578063081812fc1461109e578063095ea7b314610f1a5780631249c58b14610abe57806312fde4b714610a9557806318160ddd14610a7757806323b872dd14610a4d5780632f745c59146109a057806342842e0e146109765780634378a6e314610918578063476343ee1461086b5780634f6ccce7146107d85780636352211e146107a757806370a082311461077b578063715018a61461071e5780638da5cb5b146106f557806395d89b4114610612578063a22cb4651461053c578063a2d6c6da1461049c578063a42dce80146103fa578063b88d4fde14610365578063c87b56dd14610259578063e985e9c5146101ff5763f2fde38b1461013457600080fd5b346101fc5760203660031901126101fc5761014d611214565b6101556119d7565b6001600160a01b031680156101a857600a80546001600160a01b0319811683179091556001600160a01b03167f8be0079c531659141344cd1fd0a4f28419497f9722a3daafe3b4186f6b6457e08380a380f35b60405162461bcd60e51b815260206004820152602660248201527f4f776e61626c653a206e6577206f776e657220697320746865207a65726f206160448201526564647265737360d01b6064820152608490fd5b80fd5b50346101fc5760403660031901126101fc57604061021b611214565b9161022461122f565b9260018060a01b031681526005602052209060018060a01b0316600052602052602060ff604060002054166040519015158152f35b50346101fc5760203660031901126101fc576004356000818152600260205260409020546001600160a01b03161561035657808252600d602052816102dd604082206102b0604051916102ab8361127f565b611329565b815260405193849283926326877f8b60e21b845260406004850152516020604485015260648401906111ef565b906024830152038173__$f0abc41383f9653515648810671b79cf5b$__5af490811561034b57826103249392610328575b50506040519182916020835260208301906111ef565b0390f35b61034492503d8091833e61033c81836112b1565b8101906115b7565b388061030e565b6040513d84823e3d90fd5b633a5c641160e21b8252600482fd5b50346101fc5760803660031901126101fc5761037f611214565b61038761122f565b906064359067ffffffffffffffff82116103f657366023830112156103f657816004013592846103b6856112d3565b936103c460405195866112b1565b85855236602487830101116103f257856103ef96602460209301838801378501015260443591611616565b80f35b5080fd5b8380fd5b50346101fc5760203660031901126101fc57610414611214565b61041c6119d7565b600b546001600160a01b03808216921690811561048d5782821461047e576001600160a01b0319168117600b556040805192835260208301919091527f649c5e3d0ed183894196148e193af316452b0037e77d2ff0fef23b7dc722bed091a180f35b631cbbc77f60e11b8452600484fd5b635c05802160e01b8452600484fd5b50346101fc5760203660031901126101fc576004358152600d6020526104fc81604081206104d0604051916102ab8361127f565b815260405180938192630cb27b3b60e11b835260206004840152516020602484015260448301906111ef565b038173__$f0abc41383f9653515648810671b79cf5b$__5af490811561034b578261032493926103285750506040519182916020835260208301906111ef565b50346101fc5760403660031901126101fc57610556611214565b6024359081151580920361060e576001600160a01b0316903382146105c95733835260056020526040832082600052602052604060002060ff1981541660ff83161790556040519081527f17307eab39ab6107e8899845ad3d59bd9653f200f220920489ca2b5937696c3160203392a380f35b60405162461bcd60e51b815260206004820152601960248201527f4552433732313a20617070726f766520746f2063616c6c6572000000000000006044820152606490fd5b8280fd5b50346101fc57806003193601126101fc57604051908060015490610635826112ef565b80855291600181169081156106ce5750600114610671575b6103248461065d818603826112b1565b6040519182916020835260208301906111ef565b600181527fb10e2d527612073b26eecdfd717e6a320cf44b4afac2b0732d9fcbe2b7fa0cf6939250905b8082106106b45750909150810160200161065d8261064d565b91926001816020925483858801015201910190929161069b565b60ff191660208087019190915292151560051b8501909201925061065d915083905061064d565b50346101fc57806003193601126101fc57600a546040516001600160a01b039091168152602090f35b50346101fc57806003193601126101fc576107376119d7565b600a80546001600160a01b0319811690915581906001600160a01b03167f8be0079c531659141344cd1fd0a4f28419497f9722a3daafe3b4186f6b6457e08280a380f35b50346101fc5760203660031901126101fc57602061079f61079a611214565b611540565b604051908152f35b50346101fc5760203660031901126101fc5760206107c660043561151a565b6040516001600160a01b039091168152f35b50346101fc5760203660031901126101fc576004356008548110156108115761080260209161149d565b90549060031b1c604051908152f35b60405162461bcd60e51b815260206004820152602c60248201527f455243373231456e756d657261626c653a20676c6f62616c20696e646578206f60448201526b7574206f6620626f756e647360a01b6064820152608490fd5b50346101fc57806003193601126101fc57600b546001600160a01b0316338190036109095747156108fa57818080804780955af16108a761140b565b50156108eb5760407fc0819c13be868895eb93e40eaceb96de976442fa1d404e5c55f14bb65a8c489a9160018060a01b03600b54169082519182526020820152a180f35b632e61b12f60e21b8252600482fd5b63d31548fb60e01b8252600482fd5b63b72de5af60e01b8252600482fd5b50346101fc5760203660031901126101fc576040610324916060825161093d8161127f565b526004358152600d60205220610959604051916102ab8361127f565b8152604051918291602083525160208084015260408301906111ef565b50346101fc576103ef61098836611245565b90604051926109986020856112b1565b858452611616565b50346101fc5760403660031901126101fc576109ba611214565b602435916109c782611540565b8310156109f45760209260409260018060a01b031682526006845282822090825283522054604051908152f35b60405162461bcd60e51b815260206004820152602b60248201527f455243373231456e756d657261626c653a206f776e657220696e646578206f7560448201526a74206f6620626f756e647360a81b6064820152608490fd5b50346101fc576103ef610a5f36611245565b91610a72610a6d84336116aa565b61143b565b61177d565b50346101fc57806003193601126101fc576020600854604051908152f35b50346101fc57806003193601126101fc57600b546040516001600160a01b039091168152602090f35b50806003193601126101fc5766038d7ea4c680003410610f0b576001600c540180600c553315610ec757600081815260026020526040902054610b0d906001600160a01b031615155b1561165e565b6008548183526009602052806040842055600160401b811015610eb35781610b3e826001610b57940160085561149d565b90919082549060031b91821b91600019901b1916179055565b610b6033611540565b33835260066020526040832081845260205281604084205581835260076020526040832055610ba7610b0782600052600260205260018060a01b0360406000205416151590565b33808352600360209081526040808520805460010190558385526002909152832080546001600160a01b03191682179055819083600080516020611cef8339815191528180a46040516060610bfc81836112b1565b8036833783600019430143811133841b9630851b9240935b6003821015610c9c5780610c88575081610c72576001604051602081019083825242604082015286888201528a608082015285609482015260888152610c5b60a8826112b1565b51902060659006600583901b880152016000610c14565b634e487b7160e01b600052601160045260246000fd5b634e487b7160e01b81526011600452602490fd5b878791610d546002600385519582610ccf610cc9610cc3604060208601519501519a611b7f565b93611b7f565b98611b7f565b6024604051998a94630d0e6d8560e31b6020870152610cf7815180926020868a0191016111cc565b850161016160f51b83820152610d178251809360206026850191016111cc565b01016201296160ed1b83820152610d388251809360206005850191016111cc565b010161252960f01b838201520301601d198101865201846112b1565b60405192610d618461127f565b8352818152600d60205260408120925192835167ffffffffffffffff8111610eb357610d8d82546112ef565b601f8111610e6e575b50602094601f8211600114610e0c579483949582939492610e01575b50508160011b916000199060031b1c19161790555b808080803460018060a01b03600a54165af1610de161140b565b5015610df257602082604051908152f35b632e61b12f60e21b8152600490fd5b015190508580610db2565b601f1982169583855280852091855b888110610e5657508360019596979810610e3d575b505050811b019055610dc7565b015160001960f88460031b161c19169055858080610e30565b91926020600181928685015181550194019201610e1b565b82845260208420601f830160051c81019160208410610ea9575b601f0160051c01905b818110610e9e5750610d96565b848155600101610e91565b9091508190610e88565b634e487b7160e01b83526041600452602483fd5b606460405162461bcd60e51b815260206004820152602060248201527f4552433732313a206d696e7420746f20746865207a65726f20616464726573736044820152fd5b630ea220ab60e11b8152600490fd5b50346101fc5760403660031901126101fc57610f34611214565b602435906001600160a01b03610f498361151a565b6001600160a01b03909216911681811461104f5780331490811561102e575b5015610fc35781835260046020526040832080546001600160a01b031916821790556001600160a01b03610f9b8361151a565b167f8c5be1e5ebec7d5bd14f71427d1e84f3dd0314c0f7b2291e5b200ac8c7c3b9258480a480f35b60405162461bcd60e51b815260206004820152603d60248201527f4552433732313a20617070726f76652063616c6c6572206973206e6f7420746f60448201527f6b656e206f776e6572206f7220617070726f76656420666f7220616c6c0000006064820152608490fd5b84525060056020908152604080852033865290915283205460ff1638610f68565b60405162461bcd60e51b815260206004820152602160248201527f4552433732313a20617070726f76616c20746f2063757272656e74206f776e656044820152603960f91b6064820152608490fd5b50346101fc5760203660031901126101fc5760206107c66004356113cd565b50346101fc57806003193601126101fc5760405190808054906110df826112ef565b80855291600181169081156106ce5750600114611106576103248461065d818603826112b1565b80805260208120939250905b80821061112b5750909150810160200161065d8261064d565b919260018160209254838588010152019101909291611112565b9050346103f25760203660031901126103f25760043563ffffffff60e01b811680910361060e576020925063780e9d6360e01b8114908115611189575b5015158152f35b6380ac58cd60e01b8114915081156111bb575b81156111aa575b5038611182565b6301ffc9a760e01b149050386111a3565b635b5e139f60e01b8114915061119c565b60005b8381106111df5750506000910152565b81810151838201526020016111cf565b90602091611208815180928185528580860191016111cc565b601f01601f1916010190565b600435906001600160a01b038216820361122a57565b600080fd5b602435906001600160a01b038216820361122a57565b606090600319011261122a576004356001600160a01b038116810361122a57906024356001600160a01b038116810361122a579060443590565b6020810190811067ffffffffffffffff82111761129b57604052565b634e487b7160e01b600052604160045260246000fd5b90601f8019910116810190811067ffffffffffffffff82111761129b57604052565b67ffffffffffffffff811161129b57601f01601f191660200190565b90600182811c9216801561131f575b602083101461130957565b634e487b7160e01b600052602260045260246000fd5b91607f16916112fe565b906040519182600082549261133d846112ef565b80845293600181169081156113ab5750600114611364575b50611362925003836112b1565b565b90506000929192526020600020906000915b81831061138f5750509060206113629282010138611355565b6020919350806001915483858901015201910190918492611376565b90506020925061136294915060ff191682840152151560051b82010138611355565b6000818152600260205260409020546113f0906001600160a01b031615156114ce565b6000908152600460205260409020546001600160a01b031690565b3d15611436573d9061141c826112d3565b9161142a60405193846112b1565b82523d6000602084013e565b606090565b1561144257565b60405162461bcd60e51b815260206004820152602d60248201527f4552433732313a2063616c6c6572206973206e6f7420746f6b656e206f776e6560448201526c1c881bdc88185c1c1c9bdd9959609a1b6064820152608490fd5b6008548110156114b857600860005260206000200190600090565b634e487b7160e01b600052603260045260246000fd5b156114d557565b60405162461bcd60e51b815260206004820152601860248201527f4552433732313a20696e76616c696420746f6b656e20494400000000000000006044820152606490fd5b6000908152600260205260409020546001600160a01b031661153d8115156114ce565b90565b6001600160a01b0316801561156057600052600360205260406000205490565b60405162461bcd60e51b815260206004820152602960248201527f4552433732313a2061646472657373207a65726f206973206e6f7420612076616044820152683634b21037bbb732b960b91b6064820152608490fd5b60208183031261122a5780519067ffffffffffffffff821161122a570181601f8201121561122a5780516115ea816112d3565b926115f860405194856112b1565b8184526020828401011161122a5761153d91602080850191016111cc565b9061163a93929161162a610a6d84336116aa565b61163583838361177d565b611a82565b1561164157565b60405162461bcd60e51b81528061165a60048201611a2f565b0390fd5b1561166557565b60405162461bcd60e51b815260206004820152601c60248201527f4552433732313a20746f6b656e20616c7265616479206d696e746564000000006044820152606490fd5b906001600160a01b036116bc8261151a565b6001600160a01b03909316921682811492919083156116fc575b5082156116e257505090565b9091506001600160a01b03906116f7906113cd565b161490565b909250600052600560205260406000208160005260205260ff6040600020541691386116d6565b1561172a57565b60405162461bcd60e51b815260206004820152602560248201527f4552433732313a207472616e736665722066726f6d20696e636f72726563742060448201526437bbb732b960d91b6064820152608490fd5b906117878361151a565b6001600160a01b0383811692916117a091168314611723565b6001600160a01b03811692831561198657826118c557506008549084600052600960205281604060002055600160401b82101561129b576117fa85610b3e846001600080516020611cef833981519152960160085561149d565b600090838503611891575b50611822836001600160a01b0361181b8861151a565b1614611723565b8481526004602052604081206bffffffffffffffffffffffff60a01b8154169055828152600360205260408120600019815401905583815260036020526040812060018154019055848152600260205260408120846bffffffffffffffffffffffff60a01b82541617905580a4565b61189a90611540565b8482526006602052604082208183526020528560408320558582526007602052604082205538611805565b8383036118e3575b50600080516020611cef833981519152906117fa565b6118ec90611540565b600019810191908211610c7257600080516020611cef83398151915291856000526007602052604060002054818103611953575b508560005260076020526000604081205583600052600660205260406000209060005260205260006040812055906118cd565b60008581526006602090815260408083208584528252808320548484528184208190558352600790915290205538611920565b60405162461bcd60e51b8152602060048201526024808201527f4552433732313a207472616e7366657220746f20746865207a65726f206164646044820152637265737360e01b6064820152608490fd5b600a546001600160a01b031633036119eb57565b606460405162461bcd60e51b815260206004820152602060248201527f4f776e61626c653a2063616c6c6572206973206e6f7420746865206f776e65726044820152fd5b60809060208152603260208201527f4552433732313a207472616e7366657220746f206e6f6e20455243373231526560408201527131b2b4bb32b91034b6b83632b6b2b73a32b960711b60608201520190565b919290803b15611b7657611ad293600060209460405196879586948593630a85bd0160e11b855233600486015260018060a01b0316602485015260448401526080606484015260848301906111ef565b03926001600160a01b03165af18091600091611b33575b5090611b1d57611af761140b565b80519081611b185760405162461bcd60e51b81528061165a60048201611a2f565b602001fd5b6001600160e01b031916630a85bd0160e11b1490565b6020813d602011611b6e575b81611b4c602093836112b1565b810103126103f25751906001600160e01b0319821682036101fc575038611ae9565b3d9150611b3f565b50505050600190565b8060009172184f03e93ff9f4daa797ed6e38ed64bf6a1f0160401b821015611ccb575b806d04ee2d6d415b85acef8100000000600a921015611cb0575b662386f26fc10000811015611c9c575b6305f5e100811015611c8b575b612710811015611c7c575b6064811015611c6e575b1015611c63575b600a60216001840193611c07856112d3565b94611c1560405196876112b1565b808652611c24601f19916112d3565b013660208701378401015b60001901916f181899199a1a9b1b9c1cb0b131b232b360811b8282061a8353048015611c5e57600a9091611c2f565b505090565b600190910190611bf5565b606460029104930192611bee565b61271060049104930192611be4565b6305f5e10060089104930192611bd9565b662386f26fc1000060109104930192611bcc565b6d04ee2d6d415b85acef810000000060209104930192611bbc565b506040915072184f03e93ff9f4daa797ed6e38ed64bf6a1f0160401b8104611ba256feddf252ad1be2c89b69c2b068fc378daa952ba7f163c4a11628f55a4df523b3efa26469706673582212201ff760fb9a46262a444031e9074454a4808127395b2bcef29a914f43eb7a527564736f6c634300081c0033",
  "libraries": {
    "ScarfMetadata": "0xBb9ee01500F42F30183b6dbEe882148C6669E90a"
  },
  "devdoc": {
    "events": {
      "Approval(address,address,uint256)": {
        "details": "Emitted when `owner` enables `approved` to manage the `tokenId` token."
      },
      "ApprovalForAll(address,address,bool)": {
        "details": "Emitted when `owner` enables or disables (`approved`) `operator` to manage all of its assets."
      },
      "Transfer(address,address,uint256)": {
        "details": "Emitted when `tokenId` token is transferred from `from` to `to`."
      }
    },
    "kind": "dev",
    "methods": {
      "approve(address,uint256)": {
        "details": "See {IERC721-approve}."
      },
      "balanceOf(address)": {
        "details": "See {IERC721-balanceOf}."
      },
      "getApproved(uint256)": {
        "details": "See {IERC721-getApproved}."
      },
      "isApprovedForAll(address,address)": {
        "details": "See {IERC721-isApprovedForAll}."
      },
      "name()": {
        "details": "See {IERC721Metadata-name}."
      },
      "owner()": {
        "details": "Returns the address of the current owner."
      },
      "ownerOf(uint256)": {
        "details": "See {IERC721-ownerOf}."
      },
      "renounceOwnership()": {
        "details": "Leaves the contract without owner. It will not be possible to call `onlyOwner` functions anymore. Can only be called by the current owner. NOTE: Renouncing ownership will leave the contract without an owner, thereby removing any functionality that is only available to the owner."
      },
      "safeTransferFrom(address,address,uint256)": {
        "details": "See {IERC721-safeTransferFrom}."
      },
      "safeTransferFrom(address,address,uint256,bytes)": {
        "details": "See {IERC721-safeTransferFrom}."
      },
      "setApprovalForAll(address,bool)": {
        "details": "See {IERC721-setApprovalForAll}."
      },
      "supportsInterface(bytes4)": {
        "details": "See {IERC165-supportsInterface}."
      },
      "symbol()": {
        "details": "See {IERC721Metadata-symbol}."
      },
      "tokenByIndex(uint256)": {
        "details": "See {IERC721Enumerable-tokenByIndex}."
      },
      "tokenOfOwnerByIndex(address,uint256)": {
        "details": "See {IERC721Enumerable-tokenOfOwnerByIndex}."
      },
      "tokenURI(uint256)": {
        "details": "See {IERC721Metadata-tokenURI}."
      },
      "totalSupply()": {
        "details": "See {IERC721Enumerable-totalSupply}."
      },
      "transferFrom(address,address,uint256)": {
        "details": "See {IERC721-transferFrom}."
      },
      "transferOwnership(address)": {
        "details": "Transfers ownership of the contract to a new account (`newOwner`). Can only be called by the current owner."
      }
    },
    "version": 1
  },
  "userdoc": {
    "kind": "user",
    "methods": {},
    "version": 1
  },
  "storageLayout": {
    "storage": [
      {
        "astId": 144,
        "contract": "contracts/accessories/Scarf.sol:Scarf",
        "label": "_name",
        "offset": 0,
        "slot": "0",
        "type": "t_string_storage"
      },
      {
        "astId": 146,
        "contract": "contracts/accessories/Scarf.sol:Scarf",
        "label": "_symbol",
        "offset": 0,
        "slot": "1",
        "type": "t_string_storage"
      },
      {
        "astId": 150,
        "contract": "contracts/accessories/Scarf.sol:Scarf",
        "label": "_owners",
        "offset": 0,
        "slot": "2",
        "type": "t_mapping(t_uint256,t_address)"
      },
      {
        "astId": 154,
        "contract": "contracts/accessories/Scarf.sol:Scarf",
        "label": "_balances",
        "offset": 0,
        "slot": "3",
        "type": "t_mapping(t_address,t_uint256)"
      },
      {
        "astId": 158,
        "contract": "contracts/accessories/Scarf.sol:Scarf",
        "label": "_tokenApprovals",
        "offset": 0,
        "slot": "4",
        "type": "t_mapping(t_uint256,t_address)"
      },
      {
        "astId": 164,
        "contract": "contracts/accessories/Scarf.sol:Scarf",
        "label": "_operatorApprovals",
        "offset": 0,
        "slot": "5",
        "type": "t_mapping(t_address,t_mapping(t_address,t_bool))"
      },
      {
        "astId": 1212,
        "contract": "contracts/accessories/Scarf.sol:Scarf",
        "label": "_ownedTokens",
        "offset": 0,
        "slot": "6",
        "type": "t_mapping(t_address,t_mapping(t_uint256,t_uint256))"
      },
      {
        "astId": 1216,
        "contract": "contracts/accessories/Scarf.sol:Scarf",
        "label": "_ownedTokensIndex",
        "offset": 0,
        "slot": "7",
        "type": "t_mapping(t_uint256,t_uint256)"
      },
      {
        "astId": 1219,
        "contract": "contracts/accessories/Scarf.sol:Scarf",
        "label": "_allTokens",
        "offset": 0,
        "slot": "8",
        "type": "t_array(t_uint256)dyn_storage"
      },
      {
        "astId": 1223,
        "contract": "contracts/accessories/Scarf.sol:Scarf",
        "label": "_allTokensIndex",
        "offset": 0,
        "slot": "9",
        "type": "t_mapping(t_uint256,t_uint256)"
      },
      {
        "astId": 7,
        "contract": "contracts/accessories/Scarf.sol:Scarf",
        "label": "_owner",
        "offset": 0,
        "slot": "10",
        "type": "t_address"
      },
      {
        "astId": 4419,
        "contract": "contracts/accessories/Scarf.sol:Scarf",
        "label": "s_feeCollector",
        "offset": 0,
        "slot": "11",
        "type": "t_address"
      },
      {
        "astId": 4422,
        "contract": "contracts/accessories/Scarf.sol:Scarf",
        "label": "s_tokenIds",
        "offset": 0,
        "slot": "12",
        "type": "t_struct(Counter)1967_storage"
      },
      {
        "astId": 4427,
        "contract": "contracts/accessories/Scarf.sol:Scarf",
        "label": "s_attributes",
        "offset": 0,
        "slot": "13",
        "type": "t_mapping(t_uint256,t_struct(Scarf)6709_storage)"
      }
    ],
    "types": {
      "t_address": {
        "encoding": "inplace",
        "label": "address",
        "numberOfBytes": "20"
      },
      "t_array(t_uint256)dyn_storage": {
        "base": "t_uint256",
        "encoding": "dynamic_array",
        "label": "uint256[]",
        "numberOfBytes": "32"
      },
      "t_bool": {
        "encoding": "inplace",
        "label": "bool",
        "numberOfBytes": "1"
      },
      "t_mapping(t_address,t_bool)": {
        "encoding": "mapping",
        "key": "t_address",
        "label": "mapping(address => bool)",
        "numberOfBytes": "32",
        "value": "t_bool"
      },
      "t_mapping(t_address,t_mapping(t_address,t_bool))": {
        "encoding": "mapping",
        "key": "t_address",
        "label": "mapping(address => mapping(address => bool))",
        "numberOfBytes": "32",
        "value": "t_mapping(t_address,t_bool)"
      },
      "t_mapping(t_address,t_mapping(t_uint256,t_uint256))": {
        "encoding": "mapping",
        "key": "t_address",
        "label": "mapping(address => mapping(uint256 => uint256))",
        "numberOfBytes": "32",
        "value": "t_mapping(t_uint256,t_uint256)"
      },
      "t_mapping(t_address,t_uint256)": {
        "encoding": "mapping",
        "key": "t_address",
        "label": "mapping(address => uint256)",
        "numberOfBytes": "32",
        "value": "t_uint256"
      },
      "t_mapping(t_uint256,t_address)": {
        "encoding": "mapping",
        "key": "t_uint256",
        "label": "mapping(uint256 => address)",
        "numberOfBytes": "32",
        "value": "t_address"
      },
      "t_mapping(t_uint256,t_struct(Scarf)6709_storage)": {
        "encoding": "mapping",
        "key": "t_uint256",
        "label": "mapping(uint256 => struct DataTypes.Scarf)",
        "numberOfBytes": "32",
        "value": "t_struct(Scarf)6709_storage"
      },
      "t_mapping(t_uint256,t_uint256)": {
        "encoding": "mapping",
        "key": "t_uint256",
        "label": "mapping(uint256 => uint256)",
        "numberOfBytes": "32",
        "value": "t_uint256"
      },
      "t_string_storage": {
        "encoding": "bytes",
        "label": "string",
        "numberOfBytes": "32"
      },
      "t_struct(Counter)1967_storage": {
        "encoding": "inplace",
        "label": "struct Counters.Counter",
        "members": [
          {
            "astId": 1966,
            "contract": "contracts/accessories/Scarf.sol:Scarf",
            "label": "_value",
            "offset": 0,
            "slot": "0",
            "type": "t_uint256"
          }
        ],
        "numberOfBytes": "32"
      },
      "t_struct(Scarf)6709_storage": {
        "encoding": "inplace",
        "label": "struct DataTypes.Scarf",
        "members": [
          {
            "astId": 6708,
            "contract": "contracts/accessories/Scarf.sol:Scarf",
            "label": "color",
            "offset": 0,
            "slot": "0",
            "type": "t_string_storage"
          }
        ],
        "numberOfBytes": "32"
      },
      "t_uint256": {
        "encoding": "inplace",
        "label": "uint256",
        "numberOfBytes": "32"
      }
    }
  }
}