{
  "address": "0x67Bd941a3BCfCE1b7436Ec680B495Da7b2330825",
  "abi": [
    {
      "inputs": [],
      "stateMutability": "nonpayable",
      "type": "constructor"
    },
    {
      "inputs": [],
      "name": "Snowman__AcccessoryAlreadyExists",
      "type": "error"
    },
    {
      "inputs": [],
      "name": "Snowman__AccessoriesCountMismatch",
      "type": "error"
    },
    {
      "inputs": [],
      "name": "Snowman__AccessoryAlreadyWorn",
      "type": "error"
    },
    {
      "inputs": [],
      "name": "Snowman__AccessoryNotWorn",
      "type": "error"
    },
    {
      "inputs": [],
      "name": "Snowman__CannotWearAccessory",
      "type": "error"
    },
    {
      "inputs": [],
      "name": "Snowman__NoAccessories",
      "type": "error"
    },
    {
      "inputs": [],
      "name": "Snowman__NotAccessoryOwner",
      "type": "error"
    },
    {
      "inputs": [],
      "name": "Snowman__NotMinted",
      "type": "error"
    },
    {
      "inputs": [],
      "name": "Snowman__NotOwner",
      "type": "error"
    },
    {
      "inputs": [],
      "name": "Snowman__UnavailableAccessory",
      "type": "error"
    },
    {
      "inputs": [],
      "name": "TypeCast__toUint256_OutOfBounds",
      "type": "error"
    },
    {
      "anonymous": false,
      "inputs": [
        {
          "indexed": false,
          "internalType": "address[]",
          "name": "accessories",
          "type": "address[]"
        }
      ],
      "name": "AccessoriesAdded",
      "type": "event"
    },
    {
      "anonymous": false,
      "inputs": [
        {
          "indexed": false,
          "internalType": "address[]",
          "name": "accessories",
          "type": "address[]"
        }
      ],
      "name": "AccessoriesAdded",
      "type": "event"
    },
    {
      "anonymous": false,
      "inputs": [
        {
          "components": [
            {
              "internalType": "address",
              "name": "_address",
              "type": "address"
            },
            {
              "internalType": "enum DataTypes.AccessoryPosition",
              "name": "position",
              "type": "uint8"
            }
          ],
          "indexed": false,
          "internalType": "struct DataTypes.Accessory[]",
          "name": "accessories",
          "type": "tuple[]"
        },
        {
          "indexed": false,
          "internalType": "uint256",
          "name": "snowmanId",
          "type": "uint256"
        }
      ],
      "name": "AccessoriesRemoved",
      "type": "event"
    },
    {
      "anonymous": false,
      "inputs": [
        {
          "indexed": false,
          "internalType": "address",
          "name": "accessory",
          "type": "address"
        }
      ],
      "name": "AccessoryAdded",
      "type": "event"
    },
    {
      "anonymous": false,
      "inputs": [
        {
          "indexed": false,
          "internalType": "address",
          "name": "accessory",
          "type": "address"
        }
      ],
      "name": "AccessoryAdded",
      "type": "event"
    },
    {
      "anonymous": false,
      "inputs": [
        {
          "indexed": false,
          "internalType": "address",
          "name": "accessory",
          "type": "address"
        },
        {
          "indexed": false,
          "internalType": "uint256",
          "name": "snowmanId",
          "type": "uint256"
        }
      ],
      "name": "AccessoryRemoved",
      "type": "event"
    },
    {
      "anonymous": false,
      "inputs": [
        {
          "indexed": true,
          "internalType": "address",
          "name": "owner",
          "type": "address"
        },
        {
          "indexed": true,
          "internalType": "address",
          "name": "approved",
          "type": "address"
        },
        {
          "indexed": true,
          "internalType": "uint256",
          "name": "tokenId",
          "type": "uint256"
        }
      ],
      "name": "Approval",
      "type": "event"
    },
    {
      "anonymous": false,
      "inputs": [
        {
          "indexed": true,
          "internalType": "address",
          "name": "owner",
          "type": "address"
        },
        {
          "indexed": true,
          "internalType": "address",
          "name": "operator",
          "type": "address"
        },
        {
          "indexed": false,
          "internalType": "bool",
          "name": "approved",
          "type": "bool"
        }
      ],
      "name": "ApprovalForAll",
      "type": "event"
    },
    {
      "anonymous": false,
      "inputs": [
        {
          "indexed": true,
          "internalType": "address",
          "name": "previousOwner",
          "type": "address"
        },
        {
          "indexed": true,
          "internalType": "address",
          "name": "newOwner",
          "type": "address"
        }
      ],
      "name": "OwnershipTransferred",
      "type": "event"
    },
    {
      "anonymous": false,
      "inputs": [
        {
          "indexed": true,
          "internalType": "address",
          "name": "from",
          "type": "address"
        },
        {
          "indexed": true,
          "internalType": "address",
          "name": "to",
          "type": "address"
        },
        {
          "indexed": true,
          "internalType": "uint256",
          "name": "tokenId",
          "type": "uint256"
        }
      ],
      "name": "Transfer",
      "type": "event"
    },
    {
      "inputs": [
        {
          "internalType": "address",
          "name": "accessory",
          "type": "address"
        },
        {
          "internalType": "uint256",
          "name": "snowmanId",
          "type": "uint256"
        }
      ],
      "name": "accessoryId",
      "outputs": [
        {
          "internalType": "uint256",
          "name": "",
          "type": "uint256"
        }
      ],
      "stateMutability": "view",
      "type": "function"
    },
    {
      "inputs": [
        {
          "internalType": "address[]",
          "name": "accessories",
          "type": "address[]"
        },
        {
          "internalType": "enum DataTypes.AccessoryPosition[]",
          "name": "positions",
          "type": "uint8[]"
        }
      ],
      "name": "addAccessories",
      "outputs": [],
      "stateMutability": "nonpayable",
      "type": "function"
    },
    {
      "inputs": [
        {
          "internalType": "address",
          "name": "accessory",
          "type": "address"
        },
        {
          "internalType": "enum DataTypes.AccessoryPosition",
          "name": "position",
          "type": "uint8"
        }
      ],
      "name": "addAccessory",
      "outputs": [],
      "stateMutability": "nonpayable",
      "type": "function"
    },
    {
      "inputs": [
        {
          "internalType": "address",
          "name": "to",
          "type": "address"
        },
        {
          "internalType": "uint256",
          "name": "tokenId",
          "type": "uint256"
        }
      ],
      "name": "approve",
      "outputs": [],
      "stateMutability": "nonpayable",
      "type": "function"
    },
    {
      "inputs": [
        {
          "internalType": "address",
          "name": "owner",
          "type": "address"
        }
      ],
      "name": "balanceOf",
      "outputs": [
        {
          "internalType": "uint256",
          "name": "",
          "type": "uint256"
        }
      ],
      "stateMutability": "view",
      "type": "function"
    },
    {
      "inputs": [],
      "name": "getAccessories",
      "outputs": [
        {
          "components": [
            {
              "internalType": "address",
              "name": "_address",
              "type": "address"
            },
            {
              "internalType": "enum DataTypes.AccessoryPosition",
              "name": "position",
              "type": "uint8"
            }
          ],
          "internalType": "struct DataTypes.Accessory[]",
          "name": "",
          "type": "tuple[]"
        }
      ],
      "stateMutability": "view",
      "type": "function"
    },
    {
      "inputs": [
        {
          "internalType": "address",
          "name": "accessory",
          "type": "address"
        },
        {
          "internalType": "uint256",
          "name": "snowmanId",
          "type": "uint256"
        }
      ],
      "name": "getAccessoryById",
      "outputs": [
        {
          "internalType": "uint256",
          "name": "",
          "type": "uint256"
        }
      ],
      "stateMutability": "view",
      "type": "function"
    },
    {
      "inputs": [
        {
          "internalType": "uint256",
          "name": "tokenId",
          "type": "uint256"
        }
      ],
      "name": "getApproved",
      "outputs": [
        {
          "internalType": "address",
          "name": "",
          "type": "address"
        }
      ],
      "stateMutability": "view",
      "type": "function"
    },
    {
      "inputs": [
        {
          "internalType": "address",
          "name": "accessory",
          "type": "address"
        },
        {
          "internalType": "uint256",
          "name": "snowmanId",
          "type": "uint256"
        }
      ],
      "name": "hasAccessory",
      "outputs": [
        {
          "internalType": "bool",
          "name": "",
          "type": "bool"
        }
      ],
      "stateMutability": "view",
      "type": "function"
    },
    {
      "inputs": [
        {
          "internalType": "address",
          "name": "accessory",
          "type": "address"
        }
      ],
      "name": "isAccessoryAvailable",
      "outputs": [
        {
          "internalType": "bool",
          "name": "",
          "type": "bool"
        }
      ],
      "stateMutability": "view",
      "type": "function"
    },
    {
      "inputs": [
        {
          "internalType": "address",
          "name": "owner",
          "type": "address"
        },
        {
          "internalType": "address",
          "name": "operator",
          "type": "address"
        }
      ],
      "name": "isApprovedForAll",
      "outputs": [
        {
          "internalType": "bool",
          "name": "",
          "type": "bool"
        }
      ],
      "stateMutability": "view",
      "type": "function"
    },
    {
      "inputs": [],
      "name": "mint",
      "outputs": [
        {
          "internalType": "uint256",
          "name": "",
          "type": "uint256"
        }
      ],
      "stateMutability": "nonpayable",
      "type": "function"
    },
    {
      "inputs": [],
      "name": "name",
      "outputs": [
        {
          "internalType": "string",
          "name": "",
          "type": "string"
        }
      ],
      "stateMutability": "view",
      "type": "function"
    },
    {
      "inputs": [
        {
          "internalType": "address",
          "name": "operator",
          "type": "address"
        },
        {
          "internalType": "address",
          "name": "from",
          "type": "address"
        },
        {
          "internalType": "uint256",
          "name": "tokenId",
          "type": "uint256"
        },
        {
          "internalType": "bytes",
          "name": "snowmanIdData",
          "type": "bytes"
        }
      ],
      "name": "onERC721Received",
      "outputs": [
        {
          "internalType": "bytes4",
          "name": "",
          "type": "bytes4"
        }
      ],
      "stateMutability": "nonpayable",
      "type": "function"
    },
    {
      "inputs": [],
      "name": "owner",
      "outputs": [
        {
          "internalType": "address",
          "name": "",
          "type": "address"
        }
      ],
      "stateMutability": "view",
      "type": "function"
    },
    {
      "inputs": [
        {
          "internalType": "uint256",
          "name": "tokenId",
          "type": "uint256"
        }
      ],
      "name": "ownerOf",
      "outputs": [
        {
          "internalType": "address",
          "name": "",
          "type": "address"
        }
      ],
      "stateMutability": "view",
      "type": "function"
    },
    {
      "inputs": [
        {
          "internalType": "address",
          "name": "accessory",
          "type": "address"
        },
        {
          "internalType": "uint256",
          "name": "snowmanId",
          "type": "uint256"
        }
      ],
      "name": "removeAccessory",
      "outputs": [],
      "stateMutability": "nonpayable",
      "type": "function"
    },
    {
      "inputs": [
        {
          "internalType": "uint256",
          "name": "snowmanId",
          "type": "uint256"
        }
      ],
      "name": "removeAllAccessories",
      "outputs": [],
      "stateMutability": "nonpayable",
      "type": "function"
    },
    {
      "inputs": [
        {
          "internalType": "uint256",
          "name": "tokenId",
          "type": "uint256"
        }
      ],
      "name": "renderTokenById",
      "outputs": [
        {
          "internalType": "string",
          "name": "",
          "type": "string"
        }
      ],
      "stateMutability": "view",
      "type": "function"
    },
    {
      "inputs": [],
      "name": "renounceOwnership",
      "outputs": [],
      "stateMutability": "nonpayable",
      "type": "function"
    },
    {
      "inputs": [
        {
          "internalType": "address",
          "name": "from",
          "type": "address"
        },
        {
          "internalType": "address",
          "name": "to",
          "type": "address"
        },
        {
          "internalType": "uint256",
          "name": "tokenId",
          "type": "uint256"
        }
      ],
      "name": "safeTransferFrom",
      "outputs": [],
      "stateMutability": "nonpayable",
      "type": "function"
    },
    {
      "inputs": [
        {
          "internalType": "address",
          "name": "from",
          "type": "address"
        },
        {
          "internalType": "address",
          "name": "to",
          "type": "address"
        },
        {
          "internalType": "uint256",
          "name": "tokenId",
          "type": "uint256"
        },
        {
          "internalType": "bytes",
          "name": "data",
          "type": "bytes"
        }
      ],
      "name": "safeTransferFrom",
      "outputs": [],
      "stateMutability": "nonpayable",
      "type": "function"
    },
    {
      "inputs": [
        {
          "internalType": "address",
          "name": "operator",
          "type": "address"
        },
        {
          "internalType": "bool",
          "name": "approved",
          "type": "bool"
        }
      ],
      "name": "setApprovalForAll",
      "outputs": [],
      "stateMutability": "nonpayable",
      "type": "function"
    },
    {
      "inputs": [
        {
          "internalType": "bytes4",
          "name": "interfaceId",
          "type": "bytes4"
        }
      ],
      "name": "supportsInterface",
      "outputs": [
        {
          "internalType": "bool",
          "name": "",
          "type": "bool"
        }
      ],
      "stateMutability": "view",
      "type": "function"
    },
    {
      "inputs": [],
      "name": "symbol",
      "outputs": [
        {
          "internalType": "string",
          "name": "",
          "type": "string"
        }
      ],
      "stateMutability": "view",
      "type": "function"
    },
    {
      "inputs": [
        {
          "internalType": "uint256",
          "name": "index",
          "type": "uint256"
        }
      ],
      "name": "tokenByIndex",
      "outputs": [
        {
          "internalType": "uint256",
          "name": "",
          "type": "uint256"
        }
      ],
      "stateMutability": "view",
      "type": "function"
    },
    {
      "inputs": [
        {
          "internalType": "address",
          "name": "owner",
          "type": "address"
        },
        {
          "internalType": "uint256",
          "name": "index",
          "type": "uint256"
        }
      ],
      "name": "tokenOfOwnerByIndex",
      "outputs": [
        {
          "internalType": "uint256",
          "name": "",
          "type": "uint256"
        }
      ],
      "stateMutability": "view",
      "type": "function"
    },
    {
      "inputs": [
        {
          "internalType": "uint256",
          "name": "tokenId",
          "type": "uint256"
        }
      ],
      "name": "tokenURI",
      "outputs": [
        {
          "internalType": "string",
          "name": "",
          "type": "string"
        }
      ],
      "stateMutability": "view",
      "type": "function"
    },
    {
      "inputs": [],
      "name": "totalSupply",
      "outputs": [
        {
          "internalType": "uint256",
          "name": "",
          "type": "uint256"
        }
      ],
      "stateMutability": "view",
      "type": "function"
    },
    {
      "inputs": [
        {
          "internalType": "address",
          "name": "from",
          "type": "address"
        },
        {
          "internalType": "address",
          "name": "to",
          "type": "address"
        },
        {
          "internalType": "uint256",
          "name": "tokenId",
          "type": "uint256"
        }
      ],
      "name": "transferFrom",
      "outputs": [],
      "stateMutability": "nonpayable",
      "type": "function"
    },
    {
      "inputs": [
        {
          "internalType": "address",
          "name": "newOwner",
          "type": "address"
        }
      ],
      "name": "transferOwnership",
      "outputs": [],
      "stateMutability": "nonpayable",
      "type": "function"
    }
  ],
  "transactionHash": "0x26d4e4786c405f192ef6b243f5348e618deed1983903a7a3ac02a8ed4825b303",
  "args": [],
  "numDeployments": 1,
  "solcInputHash": "b60cd27688b87586ccb8510f0fe9bbc8",
  "bytecode": "0x60806040523461031b57610011610320565b610019610320565b81516001600160401b03811161022857600054600181811c91168015610311575b602082101461020857601f81116102ad575b50602092601f8211600114610249579281929360009261023e575b50508160011b916000199060031b1c1916176000555b80516001600160401b03811161022857600154600181811c9116801561021e575b602082101461020857601f81116101a3575b50602091601f821160011461013f57918192600092610134575b50508160011b916000199060031b1c1916176001555b600a8054336001600160a01b03198216811790925560405191906001600160a01b03167f8be0079c531659141344cd1fd0a4f28419497f9722a3daafe3b4186f6b6457e0600080a361254b90816103548239f35b0151905038806100ca565b601f198216926001600052806000209160005b85811061018b57508360019510610172575b505050811b016001556100e0565b015160001960f88460031b161c19169055388080610164565b91926020600181928685015181550194019201610152565b60016000527fb10e2d527612073b26eecdfd717e6a320cf44b4afac2b0732d9fcbe2b7fa0cf6601f830160051c810191602084106101fe575b601f0160051c01905b8181106101f257506100b0565b600081556001016101e5565b90915081906101dc565b634e487b7160e01b600052602260045260246000fd5b90607f169061009e565b634e487b7160e01b600052604160045260246000fd5b015190503880610067565b601f1982169360008052806000209160005b868110610295575083600195961061027c575b505050811b0160005561007d565b015160001960f88460031b161c1916905538808061026e565b9192602060018192868501518155019401920161025b565b600080527f290decd9548b62a8d60345a988386fc84ba6bc95484008f6362f93160ef3e563601f830160051c81019160208410610307575b601f0160051c01905b8181106102fb575061004c565b600081556001016102ee565b90915081906102e5565b90607f169061003a565b600080fd5b60408051919082016001600160401b0381118382101761022857604052600782526629b737bbb6b0b760c91b602083015256fe6080604052600436101561001257600080fd5b60003560e01c806301ffc9a71461020757806306fdde0314610202578063081812fc146101fd578063095ea7b3146101f85780631249c58b146101f3578063150b7a02146101ee57806318160ddd146101e957806323b872dd146101e45780632f745c59146101df57806342842e0e146101da5780634f6ccce7146101d5578063528088cd146101d05780636352211e146101cb57806370a08231146101c6578063715018a6146101c15780637cb3b0bd146101bc5780638da5cb5b146101b75780639457e3ad146101b257806395d89b41146101ad578063a22cb465146101a8578063a2b4df33146101a3578063a2d6c6da1461019e578063a5ff125f14610199578063b761fdb114610194578063b88d4fde1461018f578063c2365a401461018a578063c87b56dd14610185578063ca3855f614610180578063d1cb8c691461017b578063e985e9c5146101765763f2fde38b1461017157600080fd5b611584565b61151c565b6114da565b611408565b611301565b61123a565b6111d2565b6110c2565b610f85565b610e5c565b610e22565b610d28565b610c76565b610be7565b610bbe565b610b33565b610ad6565b610aa7565b610a89565b6109ca565b6108a7565b61087d565b6107c6565b61079d565b610753565b6106bc565b61050f565b61042e565b6103ed565b610313565b610223565b6001600160e01b031981160361021e57565b600080fd5b3461021e57602036600319011261021e576004356102408161020c565b63ffffffff60e01b1663780e9d6360e01b8114908115610269575b506040519015158152602090f35b6380ac58cd60e01b81149150811561029b575b811561028a575b503861025b565b6301ffc9a760e01b14905038610283565b635b5e139f60e01b8114915061027c565b600091031261021e57565b60005b8381106102ca5750506000910152565b81810151838201526020016102ba565b906020916102f3815180928185528580860191016102b7565b601f01601f1916010190565b9060206103109281815201906102da565b90565b3461021e57600036600319011261021e576040516000805461033481611655565b80845290600181169081156103c9575060011461036c575b6103688361035c8185038261115d565b604051918291826102ff565b0390f35b60008080527f290decd9548b62a8d60345a988386fc84ba6bc95484008f6362f93160ef3e563939250905b8082106103af5750909150810160200161035c61034c565b919260018160209254838588010152019101909291610397565b60ff191660208086019190915291151560051b8401909101915061035c905061034c565b3461021e57602036600319011261021e57602061040b600435611712565b6040516001600160a01b039091168152f35b6001600160a01b0381160361021e57565b3461021e57604036600319011261021e5760043561044b8161041d565b602435610457816119a2565b916001600160a01b0380841690821681146104c0576104899361048491331490811561048b575b50611750565b611c02565b005b6001600160a01b0316600090815260056020908152604080832033845290915290206104ba91505b5460ff1690565b3861047e565b60405162461bcd60e51b815260206004820152602160248201527f4552433732313a20617070726f76616c20746f2063757272656e74206f776e656044820152603960f91b6064820152608490fd5b3461021e57600036600319011261021e576001600b540180600b55331561067857600081815260026020526040902054610552906001600160a01b031615611c6e565b61055c81336120e5565b60008181526002602052604090205461057e906001600160a01b031615611c6e565b336000908152600360205260409020600181540190556105cb336105ac836000526002602052604060002090565b80546001600160a01b0319166001600160a01b03909216919091179055565b60405190803360007fddf252ad1be2c89b69c2b068fc378daa952ba7f163c4a11628f55a4df523b3ef8180a4735CeF0301F0df7dfb8673058987037F5076eE7561803b1561021e5763391b088d60e01b8352600c600484015260248301829052600090839060449082905af49182156106735761036892610658575b506040519081529081906020820190565b80610667600061066d9361115d565b806102ac565b38610647565b6117c2565b606460405162461bcd60e51b815260206004820152602060248201527f4552433732313a206d696e7420746f20746865207a65726f20616464726573736044820152fd5b3461021e57608036600319011261021e576106d860043561041d565b6024356106e48161041d565b604435906064359067ffffffffffffffff821161021e573660238301121561021e5781600401359067ffffffffffffffff821161021e57366024838501011161021e576103689360246107389401916117ce565b6040516001600160e01b031990911681529081906020820190565b3461021e57600036600319011261021e576020600854604051908152f35b606090600319011261021e576004356107898161041d565b906024356107968161041d565b9060443590565b3461021e576104896107ae36610771565b916107c16107bc8433611cba565b6118b5565b611d96565b3461021e57604036600319011261021e576004356107e38161041d565b602435906107f0816119c5565b821015610824576001600160a01b031660009081526006602090815260408083209383529281529082902054915191825290f35b60405162461bcd60e51b815260206004820152602b60248201527f455243373231456e756d657261626c653a206f776e657220696e646578206f7560448201526a74206f6620626f756e647360a81b6064820152608490fd5b3461021e5761048961088e36610771565b906040519261089e60208561115d565b60008452611bba565b3461021e57602036600319011261021e576004356008548110156108f85760086000527ff3f7a9fe364faab93b216da50a3214154f22a0a2b415b23a84c8169e8b636ee30154604051908152602090f35b60405162461bcd60e51b815260206004820152602c60248201527f455243373231456e756d657261626c653a20676c6f62616c20696e646578206f60448201526b7574206f6620626f756e647360a01b6064820152608490fd5b90600282101561095f5752565b634e487b7160e01b600052602160045260246000fd5b602060408183019282815284518094520192019060005b8181106109995750505090565b909192602060406001926109bf838851868060a01b038151168452015184830190610952565b01940192910161098c565b3461021e57600036600319011261021e57600d5467ffffffffffffffff8111610a845760405190610a0160208260051b018361115d565b80825260208201600d6000527fd7b6990105719101dabeb77144f2a3385c8033acd3af97e9423a695e81ad1eb56000915b838310610a4757604051806103688782610975565b600160208192604051610a5981611125565b610a7660ff8754868060a01b038116845260a01c1684830161194a565b815201920192019190610a32565b61110f565b3461021e57602036600319011261021e57602061040b6004356119a2565b3461021e57602036600319011261021e576020610ace600435610ac98161041d565b6119c5565b604051908152f35b3461021e57600036600319011261021e57610aef611ef1565b600a80546001600160a01b031981169091556000906001600160a01b03167f8be0079c531659141344cd1fd0a4f28419497f9722a3daafe3b4186f6b6457e08280a3005b3461021e5760006020366003190112610bbb577328acebbC6fF0C10Cb45f9fa5E58D4d268a3EC27881600435823b15610bb957604051928380809363efa9872960e01b825260606004830152610b8b60648301611a3c565b90600f6024840152604483015203915af48015610673578290610bab5780f35b610bb49161115d565b388180f35b505b80fd5b3461021e57600036600319011261021e57600a546040516001600160a01b039091168152602090f35b3461021e5760006040366003190112610bbb57600435610c068161041d565b816024357328acebbC6fF0C10Cb45f9fa5E58D4d268a3EC278803b15610c725760405163c6ebe1a360e01b8152600e6004820152600f60248201526001600160a01b039490941660448501526064840191909152829060849082905af48015610673578290610bab5780f35b8280fd5b3461021e57600036600319011261021e576040516000600154610c9881611655565b80845290600181169081156103c95750600114610cbf576103688361035c8185038261115d565b600160009081527fb10e2d527612073b26eecdfd717e6a320cf44b4afac2b0732d9fcbe2b7fa0cf6939250905b808210610d045750909150810160200161035c61034c565b919260018160209254838588010152019101909291610cec565b8015150361021e57565b3461021e57604036600319011261021e57600435610d458161041d565b602435610d5181610d1e565b6001600160a01b03821691338314610dd35781610d90610da19233600052600560205260406000209060018060a01b0316600052602052604060002090565b9060ff801983541691151516179055565b604051901515815233907f17307eab39ab6107e8899845ad3d59bd9653f200f220920489ca2b5937696c3190602090a3005b60405162461bcd60e51b815260206004820152601960248201527f4552433732313a20617070726f766520746f2063616c6c6572000000000000006044820152606490fd5b6002111561021e57565b3461021e57604036600319011261021e57610489600435610e428161041d565b60243590610e4f82610e18565b610e57611ef1565b611f49565b3461021e57602036600319011261021e57610ef96000600435808252600c60205260408220600460405191610e9083611141565b8054835260018101546020840152604051610eb981610eb2816002860161168f565b038261115d565b6040840152604051610ed281610eb2816003860161168f565b60608401520154608082015260405163175020f560e21b8152938492839260048401611b4b565b0381730Bb9d99f4D1852e913fa5bD7D682abd8c077FBFF5af480156106735761036891600091610f31575b50604051918291826102ff565b610f4e91503d806000833e610f46818361115d565b810190611aec565b38610f24565b9181601f8401121561021e5782359167ffffffffffffffff831161021e576020808501948460051b01011161021e57565b3461021e57604036600319011261021e5760043567ffffffffffffffff811161021e57610fb6903690600401610f54565b60243567ffffffffffffffff811161021e57610fd6903690600401610f54565b90610fdf611ef1565b82156110b1578183036110a05760005b83811061106957505050604051908060208301602084525260408201929060005b81811061103f577f32f2370e0dc4460c7df1749be2f9ddafd4c5f97d6a543e7c5ea205d02d49e60a84860385a1005b90919360208060019287356110538161041d565b848060a01b031681520195019101919091611010565b8061109a61107a6001938789612082565b356110848161041d565b61108f838787612082565b3590610e5782610e18565b01610fef565b6308dd6a9360e41b60005260046000fd5b637c7a2a9560e01b60005260046000fd5b3461021e57604036600319011261021e576004356110df8161041d565b6024359060018060a01b0316600052600f6020526040600020906000526020526020604060002054604051908152f35b634e487b7160e01b600052604160045260246000fd5b6040810190811067ffffffffffffffff821117610a8457604052565b60a0810190811067ffffffffffffffff821117610a8457604052565b90601f8019910116810190811067ffffffffffffffff821117610a8457604052565b67ffffffffffffffff8111610a8457601f01601f191660200190565b9291926111a78261117f565b916111b5604051938461115d565b82948184528183011161021e578281602093846000960137010152565b3461021e57608036600319011261021e576004356111ef8161041d565b602435906111fc8261041d565b6044356064359267ffffffffffffffff841161021e573660238501121561021e5761123461048994369060248160040135910161119b565b92611bba565b3461021e57604036600319011261021e5761129b602060043561125c8161041d565b6024356040516345dbfbe360e11b8152600e6004820152600f60248201526001600160a01b039092166044830152606482015291829081906084820190565b03817328acebbC6fF0C10Cb45f9fa5E58D4d268a3EC2785af48015610673576000906112cd575b604051908152602090f35b506020813d6020116112f9575b816112e76020938361115d565b8101031261021e5761036890516112c2565b3d91506112da565b3461021e57602036600319011261021e576004356000818152600260205260409020546001600160a01b0316156113f7576000818152600c6020526040808220905163346caf3d60e11b815260806004820152928391829161136560848401611a3c565b600f6024850152600319848203016044850152825481526001830154602082015260a06040820152608060046113b56113a460a085016002880161168f565b84810360608601526003870161168f565b94015491015260648301520381730Bb9d99f4D1852e913fa5bD7D682abd8c077FBFF5af480156106735761036891600091610f315750604051918291826102ff565b63df4d604f60e01b60005260046000fd5b3461021e57604036600319011261021e57611469602060043561142a8161041d565b6024356040516361dae5a760e11b8152600e6004820152600f60248201526001600160a01b039092166044830152606482015291829081906084820190565b03817328acebbC6fF0C10Cb45f9fa5E58D4d268a3EC2785af480156106735760009061149d575b6040519015158152602090f35b506020813d6020116114d2575b816114b76020938361115d565b8101031261021e5761036890516114cd81610d1e565b611490565b3d91506114aa565b3461021e57602036600319011261021e576004356114f78161041d565b60018060a01b0316600052600e602052602060ff604060002054166040519015158152f35b3461021e57604036600319011261021e57602060ff6115786004356115408161041d565b6024359061154d8261041d565b60018060a01b03166000526005845260406000209060018060a01b0316600052602052604060002090565b54166040519015158152f35b3461021e57602036600319011261021e576004356115a18161041d565b6115a9611ef1565b6001600160a01b0381161561160157600a80546001600160a01b039283166001600160a01b0319821681179092559091167f8be0079c531659141344cd1fd0a4f28419497f9722a3daafe3b4186f6b6457e0600080a3005b60405162461bcd60e51b815260206004820152602660248201527f4f776e61626c653a206e6577206f776e657220697320746865207a65726f206160448201526564647265737360d01b6064820152608490fd5b90600182811c92168015611685575b602083101461166f57565b634e487b7160e01b600052602260045260246000fd5b91607f1691611664565b6000929181549161169f83611655565b80835292600181169081156116f557506001146116bb57505050565b60009081526020812093945091925b8383106116db575060209250010190565b6001816020929493945483858701015201910191906116ca565b915050602093945060ff929192191683830152151560051b010190565b600081815260026020526040902054611735906001600160a01b03161515611956565b6000908152600460205260409020546001600160a01b031690565b1561175757565b60405162461bcd60e51b815260206004820152603d60248201527f4552433732313a20617070726f76652063616c6c6572206973206e6f7420746f60448201527f6b656e206f776e6572206f7220617070726f76656420666f7220616c6c0000006064820152608490fd5b6040513d6000823e3d90fd5b916117db9193369161119b565b600060208251106118a6575060200151906117f5826119a2565b6001600160a01b0391821691160361189557336000908152600e6020526040902061181f906104b3565b1561188457336000908152600f602052604090206118499082905b90600052602052604060002090565b5461187357336000908152600f60205260409020611867919061183a565b55630a85bd0160e11b90565b630ed9148160e01b60005260046000fd5b63249b262960e01b60005260046000fd5b6359bc8af160e01b60005260046000fd5b63605babf960e01b8152600490fd5b156118bc57565b60405162461bcd60e51b815260206004820152602d60248201527f4552433732313a2063616c6c6572206973206e6f7420746f6b656e206f776e6560448201526c1c881bdc88185c1c1c9bdd9959609a1b6064820152608490fd5b634e487b7160e01b600052603260045260246000fd5b80548210156119455760005260206000200190600090565b611917565b600282101561095f5752565b1561195d57565b60405162461bcd60e51b815260206004820152601860248201527f4552433732313a20696e76616c696420746f6b656e20494400000000000000006044820152606490fd5b6000908152600260205260409020546001600160a01b0316610310811515611956565b6001600160a01b031680156119e557600052600360205260406000205490565b60405162461bcd60e51b815260206004820152602960248201527f4552433732313a2061646472657373207a65726f206973206e6f7420612076616044820152683634b21037bbb732b960b91b6064820152608490fd5b6020600d54918281520190600d60005260206000209060005b818110611a625750505090565b909192600160408192611a8a8754848060a01b038116835260ff602084019160a01c16610952565b019401929101611a55565b906020825491828152019160005260206000209060005b818110611ab95750505090565b909192600160408192611ae18754848060a01b038116835260ff602084019160a01c16610952565b019401929101611aac565b60208183031261021e5780519067ffffffffffffffff821161021e570181601f8201121561021e578051611b1f8161117f565b92611b2d604051948561115d565b8184526020828401011161021e5761031091602080850191016102b7565b92919060609060808552611b6360808601600d611a95565b600f602087015285810360408701528151815260208201516020820152608080611baf611b9f604086015160a0604087015260a08601906102da565b86860151858203888701526102da565b930151910152930152565b90611bde939291611bce6107bc8433611cba565b611bd9838383611d96565b6122a5565b15611be557565b60405162461bcd60e51b815280611bfe60048201612092565b0390fd5b600082815260046020526040902080546001600160a01b0319166001600160a01b0383161790556001600160a01b03611c3a836119a2565b6001600160a01b0390921691167f8c5be1e5ebec7d5bd14f71427d1e84f3dd0314c0f7b2291e5b200ac8c7c3b925600080a4565b15611c7557565b60405162461bcd60e51b815260206004820152601c60248201527f4552433732313a20746f6b656e20616c7265616479206d696e746564000000006044820152606490fd5b6001600160a01b03611ccb836119a2565b6001600160a01b0383169116818114939192908415611d0c575b50508215611cf257505090565b9091506001600160a01b0390611d0790611712565b161490565b60009081526005602090815260408083206001600160a01b03949094168352929052205460ff1692503880611ce5565b15611d4357565b60405162461bcd60e51b815260206004820152602560248201527f4552433732313a207472616e736665722066726f6d20696e636f72726563742060448201526437bbb732b960d91b6064820152608490fd5b611d9f836119a2565b6001600160a01b038083169291611db891168314611d3c565b6001600160a01b038316928315611ea057611e3e82611ddb8784611e7996612112565b611dfd85611df7611deb8a6119a2565b6001600160a01b031690565b14611d3c565b611e24611e14886000526004602052604060002090565b80546001600160a01b0319169055565b6001600160a01b0316600090815260036020526040902090565b80546000190190556001600160a01b0381166000908152600360205260409020600181540190556105ac856000526002602052604060002090565b7fddf252ad1be2c89b69c2b068fc378daa952ba7f163c4a11628f55a4df523b3ef600080a4565b60405162461bcd60e51b8152602060048201526024808201527f4552433732313a207472616e7366657220746f20746865207a65726f206164646044820152637265737360e01b6064820152608490fd5b600a546001600160a01b03163303611f0557565b606460405162461bcd60e51b815260206004820152602060248201527f4f776e61626c653a2063616c6c6572206973206e6f7420746865206f776e65726044820152fd5b6001600160a01b0381166000908152600e602052604090205460ff16612071576001600160a01b0381166000908152600e60205260409020805460ff1916600117905560405191611f9983611125565b6001600160a01b03821683526020830190611fb4908261194a565b600d54600160401b811015610a8457806001611fd59201600d55600d61192d565b93909361205b575183546001600160a01b0319166001600160a01b03919091161783555190600282101561095f57825460ff60a01b191660a09290921b60ff60a01b16919091179091556040516001600160a01b0390911681527f8201825e315682fab446f6a324905f8105e6d8c15c9f8267df13444975c54cd99080602081010390a1565b634e487b7160e01b600052600060045260246000fd5b6314d062a360e21b60005260046000fd5b91908110156119455760051b0190565b60809060208152603260208201527f4552433732313a207472616e7366657220746f206e6f6e20455243373231526560408201527131b2b4bb32b91034b6b83632b6b2b73a32b960711b60608201520190565b906120ef81612385565b6001600160a01b03821661210957612107915061241d565b565b612107916123df565b9091906001600160a01b0381169081612153575061212f82612385565b6001600160a01b0383168061214a575050612107915061241d565b03612109575050565b6001600160a01b038416820361216a575b5061212f565b612173816119c5565b60001981019190821161222a5760009161183a6121d092868552600760205260408520548381036121d7575b50846121b5886000526007602052604060002090565b556001600160a01b0316600090815260066020526040902090565b5538612164565b8686526006602052604086208487526020526122236040872054806122128461183a8760018060a01b03166000526006602052604060002090565b556000526007602052604060002090565b553861219f565b61236f565b9081602091031261021e57516103108161020c565b6001600160a01b039182168152911660208201526040810191909152608060608201819052610310929101906102da565b3d156122a0573d906122868261117f565b91612294604051938461115d565b82523d6000602084013e565b606090565b919290803b15612366576122d693600060209460405196879586948593630a85bd0160e11b85523360048601612244565b03926001600160a01b03165af160009181612335575b5061231f576122f9612275565b8051908161231a5760405162461bcd60e51b815280611bfe60048201612092565b602001fd5b6001600160e01b031916630a85bd0160e11b1490565b61235891925060203d60201161235f575b612350818361115d565b81019061222f565b90386122ec565b503d612346565b50505050600190565b634e487b7160e01b600052601160045260246000fd5b60085481600052600960205280604060002055600160401b811015610a8457600181016008556008548110156119455760086000527ff3f7a9fe364faab93b216da50a3214154f22a0a2b415b23a84c8169e8b636ee30155565b906123e9826119c5565b9160018060a01b03166000526006602052604060002082600052602052806040600020556000526007602052604060002055565b60085460001981019181831161222a57806000526009602052816040600020549310156119455760086000527ff3f7a9fe364faab93b216da50a3214154f22a0a2b415b23a84c8169e8b636ee282015491831015611945577ff3f7a9fe364faab93b216da50a3214154f22a0a2b415b23a84c8169e8b636ee383018290556000918252600960205260408083209390935581529081205560085480156124ff5760001981019060085482101561194557600860008181527ff3f7a9fe364faab93b216da50a3214154f22a0a2b415b23a84c8169e8b636ee29092019190915555565b634e487b7160e01b600052603160045260246000fdfea264697066735822122035ebda4ab5ee130afe5995dcfada0d9933be8bca66c5dba80ba770c9d4eaa32464736f6c634300081c0033",
  "deployedBytecode": "0x6080604052600436101561001257600080fd5b60003560e01c806301ffc9a71461020757806306fdde0314610202578063081812fc146101fd578063095ea7b3146101f85780631249c58b146101f3578063150b7a02146101ee57806318160ddd146101e957806323b872dd146101e45780632f745c59146101df57806342842e0e146101da5780634f6ccce7146101d5578063528088cd146101d05780636352211e146101cb57806370a08231146101c6578063715018a6146101c15780637cb3b0bd146101bc5780638da5cb5b146101b75780639457e3ad146101b257806395d89b41146101ad578063a22cb465146101a8578063a2b4df33146101a3578063a2d6c6da1461019e578063a5ff125f14610199578063b761fdb114610194578063b88d4fde1461018f578063c2365a401461018a578063c87b56dd14610185578063ca3855f614610180578063d1cb8c691461017b578063e985e9c5146101765763f2fde38b1461017157600080fd5b611584565b61151c565b6114da565b611408565b611301565b61123a565b6111d2565b6110c2565b610f85565b610e5c565b610e22565b610d28565b610c76565b610be7565b610bbe565b610b33565b610ad6565b610aa7565b610a89565b6109ca565b6108a7565b61087d565b6107c6565b61079d565b610753565b6106bc565b61050f565b61042e565b6103ed565b610313565b610223565b6001600160e01b031981160361021e57565b600080fd5b3461021e57602036600319011261021e576004356102408161020c565b63ffffffff60e01b1663780e9d6360e01b8114908115610269575b506040519015158152602090f35b6380ac58cd60e01b81149150811561029b575b811561028a575b503861025b565b6301ffc9a760e01b14905038610283565b635b5e139f60e01b8114915061027c565b600091031261021e57565b60005b8381106102ca5750506000910152565b81810151838201526020016102ba565b906020916102f3815180928185528580860191016102b7565b601f01601f1916010190565b9060206103109281815201906102da565b90565b3461021e57600036600319011261021e576040516000805461033481611655565b80845290600181169081156103c9575060011461036c575b6103688361035c8185038261115d565b604051918291826102ff565b0390f35b60008080527f290decd9548b62a8d60345a988386fc84ba6bc95484008f6362f93160ef3e563939250905b8082106103af5750909150810160200161035c61034c565b919260018160209254838588010152019101909291610397565b60ff191660208086019190915291151560051b8401909101915061035c905061034c565b3461021e57602036600319011261021e57602061040b600435611712565b6040516001600160a01b039091168152f35b6001600160a01b0381160361021e57565b3461021e57604036600319011261021e5760043561044b8161041d565b602435610457816119a2565b916001600160a01b0380841690821681146104c0576104899361048491331490811561048b575b50611750565b611c02565b005b6001600160a01b0316600090815260056020908152604080832033845290915290206104ba91505b5460ff1690565b3861047e565b60405162461bcd60e51b815260206004820152602160248201527f4552433732313a20617070726f76616c20746f2063757272656e74206f776e656044820152603960f91b6064820152608490fd5b3461021e57600036600319011261021e576001600b540180600b55331561067857600081815260026020526040902054610552906001600160a01b031615611c6e565b61055c81336120e5565b60008181526002602052604090205461057e906001600160a01b031615611c6e565b336000908152600360205260409020600181540190556105cb336105ac836000526002602052604060002090565b80546001600160a01b0319166001600160a01b03909216919091179055565b60405190803360007fddf252ad1be2c89b69c2b068fc378daa952ba7f163c4a11628f55a4df523b3ef8180a473__$d503fc7fc259a413f130539f8fbb89f3b9$__803b1561021e5763391b088d60e01b8352600c600484015260248301829052600090839060449082905af49182156106735761036892610658575b506040519081529081906020820190565b80610667600061066d9361115d565b806102ac565b38610647565b6117c2565b606460405162461bcd60e51b815260206004820152602060248201527f4552433732313a206d696e7420746f20746865207a65726f20616464726573736044820152fd5b3461021e57608036600319011261021e576106d860043561041d565b6024356106e48161041d565b604435906064359067ffffffffffffffff821161021e573660238301121561021e5781600401359067ffffffffffffffff821161021e57366024838501011161021e576103689360246107389401916117ce565b6040516001600160e01b031990911681529081906020820190565b3461021e57600036600319011261021e576020600854604051908152f35b606090600319011261021e576004356107898161041d565b906024356107968161041d565b9060443590565b3461021e576104896107ae36610771565b916107c16107bc8433611cba565b6118b5565b611d96565b3461021e57604036600319011261021e576004356107e38161041d565b602435906107f0816119c5565b821015610824576001600160a01b031660009081526006602090815260408083209383529281529082902054915191825290f35b60405162461bcd60e51b815260206004820152602b60248201527f455243373231456e756d657261626c653a206f776e657220696e646578206f7560448201526a74206f6620626f756e647360a81b6064820152608490fd5b3461021e5761048961088e36610771565b906040519261089e60208561115d565b60008452611bba565b3461021e57602036600319011261021e576004356008548110156108f85760086000527ff3f7a9fe364faab93b216da50a3214154f22a0a2b415b23a84c8169e8b636ee30154604051908152602090f35b60405162461bcd60e51b815260206004820152602c60248201527f455243373231456e756d657261626c653a20676c6f62616c20696e646578206f60448201526b7574206f6620626f756e647360a01b6064820152608490fd5b90600282101561095f5752565b634e487b7160e01b600052602160045260246000fd5b602060408183019282815284518094520192019060005b8181106109995750505090565b909192602060406001926109bf838851868060a01b038151168452015184830190610952565b01940192910161098c565b3461021e57600036600319011261021e57600d5467ffffffffffffffff8111610a845760405190610a0160208260051b018361115d565b80825260208201600d6000527fd7b6990105719101dabeb77144f2a3385c8033acd3af97e9423a695e81ad1eb56000915b838310610a4757604051806103688782610975565b600160208192604051610a5981611125565b610a7660ff8754868060a01b038116845260a01c1684830161194a565b815201920192019190610a32565b61110f565b3461021e57602036600319011261021e57602061040b6004356119a2565b3461021e57602036600319011261021e576020610ace600435610ac98161041d565b6119c5565b604051908152f35b3461021e57600036600319011261021e57610aef611ef1565b600a80546001600160a01b031981169091556000906001600160a01b03167f8be0079c531659141344cd1fd0a4f28419497f9722a3daafe3b4186f6b6457e08280a3005b3461021e5760006020366003190112610bbb5773__$e3733dcc2607fcfb223e547dc44a4a0bca$__81600435823b15610bb957604051928380809363efa9872960e01b825260606004830152610b8b60648301611a3c565b90600f6024840152604483015203915af48015610673578290610bab5780f35b610bb49161115d565b388180f35b505b80fd5b3461021e57600036600319011261021e57600a546040516001600160a01b039091168152602090f35b3461021e5760006040366003190112610bbb57600435610c068161041d565b8160243573__$e3733dcc2607fcfb223e547dc44a4a0bca$__803b15610c725760405163c6ebe1a360e01b8152600e6004820152600f60248201526001600160a01b039490941660448501526064840191909152829060849082905af48015610673578290610bab5780f35b8280fd5b3461021e57600036600319011261021e576040516000600154610c9881611655565b80845290600181169081156103c95750600114610cbf576103688361035c8185038261115d565b600160009081527fb10e2d527612073b26eecdfd717e6a320cf44b4afac2b0732d9fcbe2b7fa0cf6939250905b808210610d045750909150810160200161035c61034c565b919260018160209254838588010152019101909291610cec565b8015150361021e57565b3461021e57604036600319011261021e57600435610d458161041d565b602435610d5181610d1e565b6001600160a01b03821691338314610dd35781610d90610da19233600052600560205260406000209060018060a01b0316600052602052604060002090565b9060ff801983541691151516179055565b604051901515815233907f17307eab39ab6107e8899845ad3d59bd9653f200f220920489ca2b5937696c3190602090a3005b60405162461bcd60e51b815260206004820152601960248201527f4552433732313a20617070726f766520746f2063616c6c6572000000000000006044820152606490fd5b6002111561021e57565b3461021e57604036600319011261021e57610489600435610e428161041d565b60243590610e4f82610e18565b610e57611ef1565b611f49565b3461021e57602036600319011261021e57610ef96000600435808252600c60205260408220600460405191610e9083611141565b8054835260018101546020840152604051610eb981610eb2816002860161168f565b038261115d565b6040840152604051610ed281610eb2816003860161168f565b60608401520154608082015260405163175020f560e21b8152938492839260048401611b4b565b038173__$274925a401284967f66b0c66a81bd03754$__5af480156106735761036891600091610f31575b50604051918291826102ff565b610f4e91503d806000833e610f46818361115d565b810190611aec565b38610f24565b9181601f8401121561021e5782359167ffffffffffffffff831161021e576020808501948460051b01011161021e57565b3461021e57604036600319011261021e5760043567ffffffffffffffff811161021e57610fb6903690600401610f54565b60243567ffffffffffffffff811161021e57610fd6903690600401610f54565b90610fdf611ef1565b82156110b1578183036110a05760005b83811061106957505050604051908060208301602084525260408201929060005b81811061103f577f32f2370e0dc4460c7df1749be2f9ddafd4c5f97d6a543e7c5ea205d02d49e60a84860385a1005b90919360208060019287356110538161041d565b848060a01b031681520195019101919091611010565b8061109a61107a6001938789612082565b356110848161041d565b61108f838787612082565b3590610e5782610e18565b01610fef565b6308dd6a9360e41b60005260046000fd5b637c7a2a9560e01b60005260046000fd5b3461021e57604036600319011261021e576004356110df8161041d565b6024359060018060a01b0316600052600f6020526040600020906000526020526020604060002054604051908152f35b634e487b7160e01b600052604160045260246000fd5b6040810190811067ffffffffffffffff821117610a8457604052565b60a0810190811067ffffffffffffffff821117610a8457604052565b90601f8019910116810190811067ffffffffffffffff821117610a8457604052565b67ffffffffffffffff8111610a8457601f01601f191660200190565b9291926111a78261117f565b916111b5604051938461115d565b82948184528183011161021e578281602093846000960137010152565b3461021e57608036600319011261021e576004356111ef8161041d565b602435906111fc8261041d565b6044356064359267ffffffffffffffff841161021e573660238501121561021e5761123461048994369060248160040135910161119b565b92611bba565b3461021e57604036600319011261021e5761129b602060043561125c8161041d565b6024356040516345dbfbe360e11b8152600e6004820152600f60248201526001600160a01b039092166044830152606482015291829081906084820190565b038173__$e3733dcc2607fcfb223e547dc44a4a0bca$__5af48015610673576000906112cd575b604051908152602090f35b506020813d6020116112f9575b816112e76020938361115d565b8101031261021e5761036890516112c2565b3d91506112da565b3461021e57602036600319011261021e576004356000818152600260205260409020546001600160a01b0316156113f7576000818152600c6020526040808220905163346caf3d60e11b815260806004820152928391829161136560848401611a3c565b600f6024850152600319848203016044850152825481526001830154602082015260a06040820152608060046113b56113a460a085016002880161168f565b84810360608601526003870161168f565b9401549101526064830152038173__$274925a401284967f66b0c66a81bd03754$__5af480156106735761036891600091610f315750604051918291826102ff565b63df4d604f60e01b60005260046000fd5b3461021e57604036600319011261021e57611469602060043561142a8161041d565b6024356040516361dae5a760e11b8152600e6004820152600f60248201526001600160a01b039092166044830152606482015291829081906084820190565b038173__$e3733dcc2607fcfb223e547dc44a4a0bca$__5af480156106735760009061149d575b6040519015158152602090f35b506020813d6020116114d2575b816114b76020938361115d565b8101031261021e5761036890516114cd81610d1e565b611490565b3d91506114aa565b3461021e57602036600319011261021e576004356114f78161041d565b60018060a01b0316600052600e602052602060ff604060002054166040519015158152f35b3461021e57604036600319011261021e57602060ff6115786004356115408161041d565b6024359061154d8261041d565b60018060a01b03166000526005845260406000209060018060a01b0316600052602052604060002090565b54166040519015158152f35b3461021e57602036600319011261021e576004356115a18161041d565b6115a9611ef1565b6001600160a01b0381161561160157600a80546001600160a01b039283166001600160a01b0319821681179092559091167f8be0079c531659141344cd1fd0a4f28419497f9722a3daafe3b4186f6b6457e0600080a3005b60405162461bcd60e51b815260206004820152602660248201527f4f776e61626c653a206e6577206f776e657220697320746865207a65726f206160448201526564647265737360d01b6064820152608490fd5b90600182811c92168015611685575b602083101461166f57565b634e487b7160e01b600052602260045260246000fd5b91607f1691611664565b6000929181549161169f83611655565b80835292600181169081156116f557506001146116bb57505050565b60009081526020812093945091925b8383106116db575060209250010190565b6001816020929493945483858701015201910191906116ca565b915050602093945060ff929192191683830152151560051b010190565b600081815260026020526040902054611735906001600160a01b03161515611956565b6000908152600460205260409020546001600160a01b031690565b1561175757565b60405162461bcd60e51b815260206004820152603d60248201527f4552433732313a20617070726f76652063616c6c6572206973206e6f7420746f60448201527f6b656e206f776e6572206f7220617070726f76656420666f7220616c6c0000006064820152608490fd5b6040513d6000823e3d90fd5b916117db9193369161119b565b600060208251106118a6575060200151906117f5826119a2565b6001600160a01b0391821691160361189557336000908152600e6020526040902061181f906104b3565b1561188457336000908152600f602052604090206118499082905b90600052602052604060002090565b5461187357336000908152600f60205260409020611867919061183a565b55630a85bd0160e11b90565b630ed9148160e01b60005260046000fd5b63249b262960e01b60005260046000fd5b6359bc8af160e01b60005260046000fd5b63605babf960e01b8152600490fd5b156118bc57565b60405162461bcd60e51b815260206004820152602d60248201527f4552433732313a2063616c6c6572206973206e6f7420746f6b656e206f776e6560448201526c1c881bdc88185c1c1c9bdd9959609a1b6064820152608490fd5b634e487b7160e01b600052603260045260246000fd5b80548210156119455760005260206000200190600090565b611917565b600282101561095f5752565b1561195d57565b60405162461bcd60e51b815260206004820152601860248201527f4552433732313a20696e76616c696420746f6b656e20494400000000000000006044820152606490fd5b6000908152600260205260409020546001600160a01b0316610310811515611956565b6001600160a01b031680156119e557600052600360205260406000205490565b60405162461bcd60e51b815260206004820152602960248201527f4552433732313a2061646472657373207a65726f206973206e6f7420612076616044820152683634b21037bbb732b960b91b6064820152608490fd5b6020600d54918281520190600d60005260206000209060005b818110611a625750505090565b909192600160408192611a8a8754848060a01b038116835260ff602084019160a01c16610952565b019401929101611a55565b906020825491828152019160005260206000209060005b818110611ab95750505090565b909192600160408192611ae18754848060a01b038116835260ff602084019160a01c16610952565b019401929101611aac565b60208183031261021e5780519067ffffffffffffffff821161021e570181601f8201121561021e578051611b1f8161117f565b92611b2d604051948561115d565b8184526020828401011161021e5761031091602080850191016102b7565b92919060609060808552611b6360808601600d611a95565b600f602087015285810360408701528151815260208201516020820152608080611baf611b9f604086015160a0604087015260a08601906102da565b86860151858203888701526102da565b930151910152930152565b90611bde939291611bce6107bc8433611cba565b611bd9838383611d96565b6122a5565b15611be557565b60405162461bcd60e51b815280611bfe60048201612092565b0390fd5b600082815260046020526040902080546001600160a01b0319166001600160a01b0383161790556001600160a01b03611c3a836119a2565b6001600160a01b0390921691167f8c5be1e5ebec7d5bd14f71427d1e84f3dd0314c0f7b2291e5b200ac8c7c3b925600080a4565b15611c7557565b60405162461bcd60e51b815260206004820152601c60248201527f4552433732313a20746f6b656e20616c7265616479206d696e746564000000006044820152606490fd5b6001600160a01b03611ccb836119a2565b6001600160a01b0383169116818114939192908415611d0c575b50508215611cf257505090565b9091506001600160a01b0390611d0790611712565b161490565b60009081526005602090815260408083206001600160a01b03949094168352929052205460ff1692503880611ce5565b15611d4357565b60405162461bcd60e51b815260206004820152602560248201527f4552433732313a207472616e736665722066726f6d20696e636f72726563742060448201526437bbb732b960d91b6064820152608490fd5b611d9f836119a2565b6001600160a01b038083169291611db891168314611d3c565b6001600160a01b038316928315611ea057611e3e82611ddb8784611e7996612112565b611dfd85611df7611deb8a6119a2565b6001600160a01b031690565b14611d3c565b611e24611e14886000526004602052604060002090565b80546001600160a01b0319169055565b6001600160a01b0316600090815260036020526040902090565b80546000190190556001600160a01b0381166000908152600360205260409020600181540190556105ac856000526002602052604060002090565b7fddf252ad1be2c89b69c2b068fc378daa952ba7f163c4a11628f55a4df523b3ef600080a4565b60405162461bcd60e51b8152602060048201526024808201527f4552433732313a207472616e7366657220746f20746865207a65726f206164646044820152637265737360e01b6064820152608490fd5b600a546001600160a01b03163303611f0557565b606460405162461bcd60e51b815260206004820152602060248201527f4f776e61626c653a2063616c6c6572206973206e6f7420746865206f776e65726044820152fd5b6001600160a01b0381166000908152600e602052604090205460ff16612071576001600160a01b0381166000908152600e60205260409020805460ff1916600117905560405191611f9983611125565b6001600160a01b03821683526020830190611fb4908261194a565b600d54600160401b811015610a8457806001611fd59201600d55600d61192d565b93909361205b575183546001600160a01b0319166001600160a01b03919091161783555190600282101561095f57825460ff60a01b191660a09290921b60ff60a01b16919091179091556040516001600160a01b0390911681527f8201825e315682fab446f6a324905f8105e6d8c15c9f8267df13444975c54cd99080602081010390a1565b634e487b7160e01b600052600060045260246000fd5b6314d062a360e21b60005260046000fd5b91908110156119455760051b0190565b60809060208152603260208201527f4552433732313a207472616e7366657220746f206e6f6e20455243373231526560408201527131b2b4bb32b91034b6b83632b6b2b73a32b960711b60608201520190565b906120ef81612385565b6001600160a01b03821661210957612107915061241d565b565b612107916123df565b9091906001600160a01b0381169081612153575061212f82612385565b6001600160a01b0383168061214a575050612107915061241d565b03612109575050565b6001600160a01b038416820361216a575b5061212f565b612173816119c5565b60001981019190821161222a5760009161183a6121d092868552600760205260408520548381036121d7575b50846121b5886000526007602052604060002090565b556001600160a01b0316600090815260066020526040902090565b5538612164565b8686526006602052604086208487526020526122236040872054806122128461183a8760018060a01b03166000526006602052604060002090565b556000526007602052604060002090565b553861219f565b61236f565b9081602091031261021e57516103108161020c565b6001600160a01b039182168152911660208201526040810191909152608060608201819052610310929101906102da565b3d156122a0573d906122868261117f565b91612294604051938461115d565b82523d6000602084013e565b606090565b919290803b15612366576122d693600060209460405196879586948593630a85bd0160e11b85523360048601612244565b03926001600160a01b03165af160009181612335575b5061231f576122f9612275565b8051908161231a5760405162461bcd60e51b815280611bfe60048201612092565b602001fd5b6001600160e01b031916630a85bd0160e11b1490565b61235891925060203d60201161235f575b612350818361115d565b81019061222f565b90386122ec565b503d612346565b50505050600190565b634e487b7160e01b600052601160045260246000fd5b60085481600052600960205280604060002055600160401b811015610a8457600181016008556008548110156119455760086000527ff3f7a9fe364faab93b216da50a3214154f22a0a2b415b23a84c8169e8b636ee30155565b906123e9826119c5565b9160018060a01b03166000526006602052604060002082600052602052806040600020556000526007602052604060002055565b60085460001981019181831161222a57806000526009602052816040600020549310156119455760086000527ff3f7a9fe364faab93b216da50a3214154f22a0a2b415b23a84c8169e8b636ee282015491831015611945577ff3f7a9fe364faab93b216da50a3214154f22a0a2b415b23a84c8169e8b636ee383018290556000918252600960205260408083209390935581529081205560085480156124ff5760001981019060085482101561194557600860008181527ff3f7a9fe364faab93b216da50a3214154f22a0a2b415b23a84c8169e8b636ee29092019190915555565b634e487b7160e01b600052603160045260246000fdfea264697066735822122035ebda4ab5ee130afe5995dcfada0d9933be8bca66c5dba80ba770c9d4eaa32464736f6c634300081c0033",
  "libraries": {
    "AttributesGen": "0x5CeF0301F0df7dfb8673058987037F5076eE7561",
    "SnowmanMetadata": "0x0Bb9d99f4D1852e913fa5bD7D682abd8c077FBFF",
    "AccessoryManager": "0x28acebbC6fF0C10Cb45f9fa5E58D4d268a3EC278"
  },
  "devdoc": {
    "author": "Valentine Orga",
    "events": {
      "AccessoriesAdded(address[])": {
        "details": "Accessories can only be added by contract owner",
        "params": {
          "accessories": "Address of accessories"
        }
      },
      "AccessoriesRemoved((address,uint8)[],uint256)": {
        "details": "Accessories can only be removed by the Snowman owner",
        "params": {
          "accessories": "Accessories removed",
          "snowmanId": "Id of Snowman with accessories"
        }
      },
      "AccessoryAdded(address)": {
        "details": "Accessory can only be added by contract owner",
        "params": {
          "accessory": "Address of accessory"
        }
      },
      "AccessoryRemoved(address,uint256)": {
        "details": "Accessory can only be removed by the Snowman owner",
        "params": {
          "accessory": "Address of accessory removed",
          "snowmanId": "Id of Snowman with accessory"
        }
      },
      "Approval(address,address,uint256)": {
        "details": "Emitted when `owner` enables `approved` to manage the `tokenId` token."
      },
      "ApprovalForAll(address,address,bool)": {
        "details": "Emitted when `owner` enables or disables (`approved`) `operator` to manage all of its assets."
      },
      "Transfer(address,address,uint256)": {
        "details": "Emitted when `tokenId` token is transferred from `from` to `to`."
      }
    },
    "kind": "dev",
    "methods": {
      "accessoryId(address,uint256)": {
        "params": {
          "accessory": "Address of accessory",
          "snowmanId": "Id of Snowman"
        }
      },
      "addAccessory(address,uint8)": {
        "details": "Can only be added by contract owner",
        "params": {
          "accessory": "Address of accessory",
          "position": "Determines which position(Foreground or Background) to place the accessory"
        }
      },
      "approve(address,uint256)": {
        "details": "See {IERC721-approve}."
      },
      "balanceOf(address)": {
        "details": "See {IERC721-balanceOf}."
      },
      "getApproved(uint256)": {
        "details": "See {IERC721-getApproved}."
      },
      "hasAccessory(address,uint256)": {
        "params": {
          "accessory": "Address of accessory",
          "snowmanId": "Id of Snowman to check"
        }
      },
      "isAccessoryAvailable(address)": {
        "details": "The contract owner determines if accessory is available or not",
        "params": {
          "accessory": "Address of accessory"
        }
      },
      "isApprovedForAll(address,address)": {
        "details": "See {IERC721-isApprovedForAll}."
      },
      "name()": {
        "details": "See {IERC721Metadata-name}."
      },
      "owner()": {
        "details": "Returns the address of the current owner."
      },
      "ownerOf(uint256)": {
        "details": "See {IERC721-ownerOf}."
      },
      "removeAccessory(address,uint256)": {
        "details": "Can only be removed by the Snowman owner",
        "params": {
          "accessory": "Address of accessory",
          "snowmanId": "Id of Snowman to remove accessory from"
        }
      },
      "removeAllAccessories(uint256)": {
        "details": "Can only be removed by the Snowman owner",
        "params": {
          "snowmanId": "Id of snowman to remove all accessories from"
        }
      },
      "renderTokenById(uint256)": {
        "params": {
          "tokenId": "Id of Snowman"
        }
      },
      "renounceOwnership()": {
        "details": "Leaves the contract without owner. It will not be possible to call `onlyOwner` functions anymore. Can only be called by the current owner. NOTE: Renouncing ownership will leave the contract without an owner, thereby removing any functionality that is only available to the owner."
      },
      "safeTransferFrom(address,address,uint256)": {
        "details": "See {IERC721-safeTransferFrom}."
      },
      "safeTransferFrom(address,address,uint256,bytes)": {
        "details": "See {IERC721-safeTransferFrom}."
      },
      "setApprovalForAll(address,bool)": {
        "details": "See {IERC721-setApprovalForAll}."
      },
      "supportsInterface(bytes4)": {
        "details": "See {IERC165-supportsInterface}."
      },
      "symbol()": {
        "details": "See {IERC721Metadata-symbol}."
      },
      "tokenByIndex(uint256)": {
        "details": "See {IERC721Enumerable-tokenByIndex}."
      },
      "tokenOfOwnerByIndex(address,uint256)": {
        "details": "See {IERC721Enumerable-tokenOfOwnerByIndex}."
      },
      "totalSupply()": {
        "details": "See {IERC721Enumerable-totalSupply}."
      },
      "transferFrom(address,address,uint256)": {
        "details": "See {IERC721-transferFrom}."
      },
      "transferOwnership(address)": {
        "details": "Transfers ownership of the contract to a new account (`newOwner`). Can only be called by the current owner."
      }
    },
    "title": "Snowman - ERC4883 Composable Snowman NFT",
    "version": 1
  },
  "userdoc": {
    "events": {
      "AccessoriesAdded(address[])": {
        "notice": "Emitted when multiple accessories have been added"
      },
      "AccessoriesRemoved((address,uint8)[],uint256)": {
        "notice": "Emitted when an accessory is removed from a Snowman"
      },
      "AccessoryAdded(address)": {
        "notice": "Emitted when an accessory has been added"
      },
      "AccessoryRemoved(address,uint256)": {
        "notice": "Emitted when an accessory is removed from a Snowman"
      }
    },
    "kind": "user",
    "methods": {
      "accessoryId(address,uint256)": {
        "notice": "Returns the id of accessory added to a snowman"
      },
      "addAccessory(address,uint8)": {
        "notice": "Adds an accessory to Snowman for composition by Snowman owners"
      },
      "getAccessories()": {
        "notice": "Retrieves all accessories"
      },
      "hasAccessory(address,uint256)": {
        "notice": "Returns `true` if an accessory has been added to a Snowman and `false` otherwise"
      },
      "isAccessoryAvailable(address)": {
        "notice": "Returns `true` if accessory is available for composition and `false` otherwise"
      },
      "mint()": {
        "notice": "Mints one snowman with dynamic attributes"
      },
      "removeAccessory(address,uint256)": {
        "notice": "Removes an accessory from a Snowman"
      },
      "removeAllAccessories(uint256)": {
        "notice": "Removes all accessories from a Snowman"
      },
      "renderTokenById(uint256)": {
        "notice": "Returns the SVG image of Snowman"
      }
    },
    "notice": "Mint a unique snowman and compose with other accessories(NFTs) approved by the admin.",
    "version": 1
  },
  "storageLayout": {
    "storage": [
      {
        "astId": 141,
        "contract": "contracts/Snowman.sol:Snowman",
        "label": "_name",
        "offset": 0,
        "slot": "0",
        "type": "t_string_storage"
      },
      {
        "astId": 143,
        "contract": "contracts/Snowman.sol:Snowman",
        "label": "_symbol",
        "offset": 0,
        "slot": "1",
        "type": "t_string_storage"
      },
      {
        "astId": 147,
        "contract": "contracts/Snowman.sol:Snowman",
        "label": "_owners",
        "offset": 0,
        "slot": "2",
        "type": "t_mapping(t_uint256,t_address)"
      },
      {
        "astId": 151,
        "contract": "contracts/Snowman.sol:Snowman",
        "label": "_balances",
        "offset": 0,
        "slot": "3",
        "type": "t_mapping(t_address,t_uint256)"
      },
      {
        "astId": 155,
        "contract": "contracts/Snowman.sol:Snowman",
        "label": "_tokenApprovals",
        "offset": 0,
        "slot": "4",
        "type": "t_mapping(t_uint256,t_address)"
      },
      {
        "astId": 161,
        "contract": "contracts/Snowman.sol:Snowman",
        "label": "_operatorApprovals",
        "offset": 0,
        "slot": "5",
        "type": "t_mapping(t_address,t_mapping(t_address,t_bool))"
      },
      {
        "astId": 1209,
        "contract": "contracts/Snowman.sol:Snowman",
        "label": "_ownedTokens",
        "offset": 0,
        "slot": "6",
        "type": "t_mapping(t_address,t_mapping(t_uint256,t_uint256))"
      },
      {
        "astId": 1213,
        "contract": "contracts/Snowman.sol:Snowman",
        "label": "_ownedTokensIndex",
        "offset": 0,
        "slot": "7",
        "type": "t_mapping(t_uint256,t_uint256)"
      },
      {
        "astId": 1216,
        "contract": "contracts/Snowman.sol:Snowman",
        "label": "_allTokens",
        "offset": 0,
        "slot": "8",
        "type": "t_array(t_uint256)dyn_storage"
      },
      {
        "astId": 1220,
        "contract": "contracts/Snowman.sol:Snowman",
        "label": "_allTokensIndex",
        "offset": 0,
        "slot": "9",
        "type": "t_mapping(t_uint256,t_uint256)"
      },
      {
        "astId": 7,
        "contract": "contracts/Snowman.sol:Snowman",
        "label": "_owner",
        "offset": 0,
        "slot": "10",
        "type": "t_address"
      },
      {
        "astId": 3330,
        "contract": "contracts/Snowman.sol:Snowman",
        "label": "s_tokenIds",
        "offset": 0,
        "slot": "11",
        "type": "t_struct(Counter)1964_storage"
      },
      {
        "astId": 3335,
        "contract": "contracts/Snowman.sol:Snowman",
        "label": "s_attributes",
        "offset": 0,
        "slot": "12",
        "type": "t_mapping(t_uint256,t_struct(Snowman)5315_storage)"
      },
      {
        "astId": 3339,
        "contract": "contracts/Snowman.sol:Snowman",
        "label": "s_accessories",
        "offset": 0,
        "slot": "13",
        "type": "t_array(t_struct(Accessory)5304_storage)dyn_storage"
      },
      {
        "astId": 3343,
        "contract": "contracts/Snowman.sol:Snowman",
        "label": "s_accessoriesAvailable",
        "offset": 0,
        "slot": "14",
        "type": "t_mapping(t_address,t_bool)"
      },
      {
        "astId": 3349,
        "contract": "contracts/Snowman.sol:Snowman",
        "label": "s_accessoriesById",
        "offset": 0,
        "slot": "15",
        "type": "t_mapping(t_address,t_mapping(t_uint256,t_uint256))"
      }
    ],
    "types": {
      "t_address": {
        "encoding": "inplace",
        "label": "address",
        "numberOfBytes": "20"
      },
      "t_array(t_struct(Accessory)5304_storage)dyn_storage": {
        "base": "t_struct(Accessory)5304_storage",
        "encoding": "dynamic_array",
        "label": "struct DataTypes.Accessory[]",
        "numberOfBytes": "32"
      },
      "t_array(t_uint256)dyn_storage": {
        "base": "t_uint256",
        "encoding": "dynamic_array",
        "label": "uint256[]",
        "numberOfBytes": "32"
      },
      "t_bool": {
        "encoding": "inplace",
        "label": "bool",
        "numberOfBytes": "1"
      },
      "t_enum(AccessoryPosition)5298": {
        "encoding": "inplace",
        "label": "enum DataTypes.AccessoryPosition",
        "numberOfBytes": "1"
      },
      "t_int256": {
        "encoding": "inplace",
        "label": "int256",
        "numberOfBytes": "32"
      },
      "t_mapping(t_address,t_bool)": {
        "encoding": "mapping",
        "key": "t_address",
        "label": "mapping(address => bool)",
        "numberOfBytes": "32",
        "value": "t_bool"
      },
      "t_mapping(t_address,t_mapping(t_address,t_bool))": {
        "encoding": "mapping",
        "key": "t_address",
        "label": "mapping(address => mapping(address => bool))",
        "numberOfBytes": "32",
        "value": "t_mapping(t_address,t_bool)"
      },
      "t_mapping(t_address,t_mapping(t_uint256,t_uint256))": {
        "encoding": "mapping",
        "key": "t_address",
        "label": "mapping(address => mapping(uint256 => uint256))",
        "numberOfBytes": "32",
        "value": "t_mapping(t_uint256,t_uint256)"
      },
      "t_mapping(t_address,t_uint256)": {
        "encoding": "mapping",
        "key": "t_address",
        "label": "mapping(address => uint256)",
        "numberOfBytes": "32",
        "value": "t_uint256"
      },
      "t_mapping(t_uint256,t_address)": {
        "encoding": "mapping",
        "key": "t_uint256",
        "label": "mapping(uint256 => address)",
        "numberOfBytes": "32",
        "value": "t_address"
      },
      "t_mapping(t_uint256,t_struct(Snowman)5315_storage)": {
        "encoding": "mapping",
        "key": "t_uint256",
        "label": "mapping(uint256 => struct DataTypes.Snowman)",
        "numberOfBytes": "32",
        "value": "t_struct(Snowman)5315_storage"
      },
      "t_mapping(t_uint256,t_uint256)": {
        "encoding": "mapping",
        "key": "t_uint256",
        "label": "mapping(uint256 => uint256)",
        "numberOfBytes": "32",
        "value": "t_uint256"
      },
      "t_string_storage": {
        "encoding": "bytes",
        "label": "string",
        "numberOfBytes": "32"
      },
      "t_struct(Accessory)5304_storage": {
        "encoding": "inplace",
        "label": "struct DataTypes.Accessory",
        "members": [
          {
            "astId": 5300,
            "contract": "contracts/Snowman.sol:Snowman",
            "label": "_address",
            "offset": 0,
            "slot": "0",
            "type": "t_address"
          },
          {
            "astId": 5303,
            "contract": "contracts/Snowman.sol:Snowman",
            "label": "position",
            "offset": 20,
            "slot": "0",
            "type": "t_enum(AccessoryPosition)5298"
          }
        ],
        "numberOfBytes": "32"
      },
      "t_struct(Counter)1964_storage": {
        "encoding": "inplace",
        "label": "struct Counters.Counter",
        "members": [
          {
            "astId": 1963,
            "contract": "contracts/Snowman.sol:Snowman",
            "label": "_value",
            "offset": 0,
            "slot": "0",
            "type": "t_uint256"
          }
        ],
        "numberOfBytes": "32"
      },
      "t_struct(Snowman)5315_storage": {
        "encoding": "inplace",
        "label": "struct DataTypes.Snowman",
        "members": [
          {
            "astId": 5306,
            "contract": "contracts/Snowman.sol:Snowman",
            "label": "eyeOffsetX",
            "offset": 0,
            "slot": "0",
            "type": "t_int256"
          },
          {
            "astId": 5308,
            "contract": "contracts/Snowman.sol:Snowman",
            "label": "eyeOffsetY",
            "offset": 0,
            "slot": "1",
            "type": "t_int256"
          },
          {
            "astId": 5310,
            "contract": "contracts/Snowman.sol:Snowman",
            "label": "cloudColor",
            "offset": 0,
            "slot": "2",
            "type": "t_string_storage"
          },
          {
            "astId": 5312,
            "contract": "contracts/Snowman.sol:Snowman",
            "label": "buttonColor",
            "offset": 0,
            "slot": "3",
            "type": "t_string_storage"
          },
          {
            "astId": 5314,
            "contract": "contracts/Snowman.sol:Snowman",
            "label": "snowAnimOffsetX",
            "offset": 0,
            "slot": "4",
            "type": "t_int256"
          }
        ],
        "numberOfBytes": "160"
      },
      "t_uint256": {
        "encoding": "inplace",
        "label": "uint256",
        "numberOfBytes": "32"
      }
    }
  }
}